{
  "_format": "hh-sol-artifact-1",
  "contractName": "Placement",
  "sourceName": "src/backend/contract/Placement.sol",
  "abi": [
    {
      "inputs": [
        {
          "internalType": "uint256",
          "name": "_companyId",
          "type": "uint256"
        },
        {
          "internalType": "string",
          "name": "_studentRollno",
          "type": "string"
        }
      ],
      "name": "addSelected",
      "outputs": [],
      "stateMutability": "nonpayable",
      "type": "function"
    },
    {
      "inputs": [
        {
          "internalType": "uint256",
          "name": "_companyId",
          "type": "uint256"
        },
        {
          "internalType": "string",
          "name": "_studentRollno",
          "type": "string"
        }
      ],
      "name": "applyForCompany",
      "outputs": [],
      "stateMutability": "nonpayable",
      "type": "function"
    },
    {
      "inputs": [
        {
          "internalType": "uint256",
          "name": "",
          "type": "uint256"
        }
      ],
      "name": "companies",
      "outputs": [
        {
          "internalType": "string",
          "name": "name",
          "type": "string"
        },
        {
          "internalType": "address payable",
          "name": "company",
          "type": "address"
        },
        {
          "internalType": "string",
          "name": "password",
          "type": "string"
        },
        {
          "internalType": "string",
          "name": "description",
          "type": "string"
        },
        {
          "internalType": "uint256",
          "name": "category",
          "type": "uint256"
        },
        {
          "internalType": "string",
          "name": "ctc",
          "type": "string"
        },
        {
          "internalType": "string",
          "name": "location",
          "type": "string"
        },
        {
          "internalType": "uint256",
          "name": "maxBackLogs",
          "type": "uint256"
        },
        {
          "internalType": "string",
          "name": "minPPI",
          "type": "string"
        },
        {
          "internalType": "string",
          "name": "status",
          "type": "string"
        }
      ],
      "stateMutability": "view",
      "type": "function"
    },
    {
      "inputs": [
        {
          "internalType": "address",
          "name": "",
          "type": "address"
        }
      ],
      "name": "companyAddress",
      "outputs": [
        {
          "internalType": "bool",
          "name": "",
          "type": "bool"
        }
      ],
      "stateMutability": "view",
      "type": "function"
    },
    {
      "inputs": [
        {
          "internalType": "uint256",
          "name": "_companyId",
          "type": "uint256"
        }
      ],
      "name": "companyExists",
      "outputs": [
        {
          "internalType": "bool",
          "name": "",
          "type": "bool"
        }
      ],
      "stateMutability": "view",
      "type": "function"
    },
    {
      "inputs": [
        {
          "internalType": "address",
          "name": "",
          "type": "address"
        }
      ],
      "name": "companyLoggedIn",
      "outputs": [
        {
          "internalType": "bool",
          "name": "",
          "type": "bool"
        }
      ],
      "stateMutability": "view",
      "type": "function"
    },
    {
      "inputs": [
        {
          "internalType": "uint256",
          "name": "_companyId",
          "type": "uint256"
        }
      ],
      "name": "endCompanyProcess",
      "outputs": [],
      "stateMutability": "nonpayable",
      "type": "function"
    },
    {
      "inputs": [
        {
          "internalType": "uint256",
          "name": "_companyId",
          "type": "uint256"
        }
      ],
      "name": "endRegistration",
      "outputs": [],
      "stateMutability": "nonpayable",
      "type": "function"
    },
    {
      "inputs": [
        {
          "internalType": "uint256",
          "name": "",
          "type": "uint256"
        }
      ],
      "name": "faculties",
      "outputs": [
        {
          "internalType": "string",
          "name": "name",
          "type": "string"
        },
        {
          "internalType": "address payable",
          "name": "faculty",
          "type": "address"
        },
        {
          "internalType": "string",
          "name": "password",
          "type": "string"
        },
        {
          "internalType": "string",
          "name": "branch",
          "type": "string"
        }
      ],
      "stateMutability": "view",
      "type": "function"
    },
    {
      "inputs": [
        {
          "internalType": "address",
          "name": "",
          "type": "address"
        }
      ],
      "name": "facultyAddress",
      "outputs": [
        {
          "internalType": "bool",
          "name": "",
          "type": "bool"
        }
      ],
      "stateMutability": "view",
      "type": "function"
    },
    {
      "inputs": [
        {
          "internalType": "uint256",
          "name": "_facultyId",
          "type": "uint256"
        }
      ],
      "name": "facultyExists",
      "outputs": [
        {
          "internalType": "bool",
          "name": "",
          "type": "bool"
        }
      ],
      "stateMutability": "view",
      "type": "function"
    },
    {
      "inputs": [
        {
          "internalType": "address",
          "name": "",
          "type": "address"
        }
      ],
      "name": "facultyLoggedIn",
      "outputs": [
        {
          "internalType": "bool",
          "name": "",
          "type": "bool"
        }
      ],
      "stateMutability": "view",
      "type": "function"
    },
    {
      "inputs": [
        {
          "internalType": "uint256",
          "name": "_companyId",
          "type": "uint256"
        }
      ],
      "name": "getCompanyStatus",
      "outputs": [
        {
          "internalType": "string",
          "name": "",
          "type": "string"
        }
      ],
      "stateMutability": "view",
      "type": "function"
    },
    {
      "inputs": [
        {
          "internalType": "string",
          "name": "_studentRollno",
          "type": "string"
        }
      ],
      "name": "getPPI",
      "outputs": [
        {
          "internalType": "string",
          "name": "",
          "type": "string"
        }
      ],
      "stateMutability": "view",
      "type": "function"
    },
    {
      "inputs": [
        {
          "internalType": "string",
          "name": "_studentRollno",
          "type": "string"
        }
      ],
      "name": "getSPI",
      "outputs": [
        {
          "internalType": "string",
          "name": "",
          "type": "string"
        }
      ],
      "stateMutability": "view",
      "type": "function"
    },
    {
      "inputs": [
        {
          "internalType": "uint256",
          "name": "_companyId",
          "type": "uint256"
        },
        {
          "internalType": "string",
          "name": "_studentRollno",
          "type": "string"
        }
      ],
      "name": "isEligible",
      "outputs": [
        {
          "internalType": "bool",
          "name": "",
          "type": "bool"
        }
      ],
      "stateMutability": "view",
      "type": "function"
    },
    {
      "inputs": [
        {
          "internalType": "uint256",
          "name": "_companyId",
          "type": "uint256"
        },
        {
          "internalType": "string",
          "name": "_password",
          "type": "string"
        }
      ],
      "name": "isValidCompany",
      "outputs": [
        {
          "internalType": "bool",
          "name": "",
          "type": "bool"
        }
      ],
      "stateMutability": "view",
      "type": "function"
    },
    {
      "inputs": [
        {
          "internalType": "uint256",
          "name": "_facultyId",
          "type": "uint256"
        },
        {
          "internalType": "string",
          "name": "_password",
          "type": "string"
        }
      ],
      "name": "isValidFaculty",
      "outputs": [
        {
          "internalType": "bool",
          "name": "",
          "type": "bool"
        }
      ],
      "stateMutability": "view",
      "type": "function"
    },
    {
      "inputs": [
        {
          "internalType": "string",
          "name": "_rollno",
          "type": "string"
        },
        {
          "internalType": "string",
          "name": "_password",
          "type": "string"
        }
      ],
      "name": "isValidStudent",
      "outputs": [
        {
          "internalType": "bool",
          "name": "",
          "type": "bool"
        }
      ],
      "stateMutability": "view",
      "type": "function"
    },
    {
      "inputs": [
        {
          "internalType": "uint256",
          "name": "_companyId",
          "type": "uint256"
        },
        {
          "internalType": "string",
          "name": "_password",
          "type": "string"
        }
      ],
      "name": "loginCompany",
      "outputs": [
        {
          "internalType": "bool",
          "name": "",
          "type": "bool"
        }
      ],
      "stateMutability": "nonpayable",
      "type": "function"
    },
    {
      "inputs": [
        {
          "internalType": "uint256",
          "name": "_facultyId",
          "type": "uint256"
        },
        {
          "internalType": "string",
          "name": "_password",
          "type": "string"
        }
      ],
      "name": "loginFaculty",
      "outputs": [
        {
          "internalType": "bool",
          "name": "",
          "type": "bool"
        }
      ],
      "stateMutability": "nonpayable",
      "type": "function"
    },
    {
      "inputs": [
        {
          "internalType": "string",
          "name": "_rollno",
          "type": "string"
        },
        {
          "internalType": "string",
          "name": "_password",
          "type": "string"
        }
      ],
      "name": "loginStudent",
      "outputs": [
        {
          "internalType": "bool",
          "name": "",
          "type": "bool"
        }
      ],
      "stateMutability": "nonpayable",
      "type": "function"
    },
    {
      "inputs": [
        {
          "internalType": "string",
          "name": "_name",
          "type": "string"
        },
        {
          "internalType": "string",
          "name": "_description",
          "type": "string"
        },
        {
          "internalType": "string",
          "name": "_password",
          "type": "string"
        },
        {
          "internalType": "uint256",
          "name": "_category",
          "type": "uint256"
        },
        {
          "internalType": "string",
          "name": "_ctc",
          "type": "string"
        },
        {
          "internalType": "string",
          "name": "_location",
          "type": "string"
        },
        {
          "internalType": "uint256",
          "name": "_maxBackLogs",
          "type": "uint256"
        },
        {
          "internalType": "string",
          "name": "_minPPI",
          "type": "string"
        }
      ],
      "name": "registerCompany",
      "outputs": [],
      "stateMutability": "nonpayable",
      "type": "function"
    },
    {
      "inputs": [
        {
          "internalType": "string",
          "name": "_name",
          "type": "string"
        },
        {
          "internalType": "string",
          "name": "_branch",
          "type": "string"
        },
        {
          "internalType": "string",
          "name": "_password",
          "type": "string"
        }
      ],
      "name": "registerFaculty",
      "outputs": [],
      "stateMutability": "nonpayable",
      "type": "function"
    },
    {
      "inputs": [
        {
          "internalType": "string",
          "name": "_rollno",
          "type": "string"
        },
        {
          "internalType": "string",
          "name": "_name",
          "type": "string"
        },
        {
          "internalType": "string",
          "name": "_password",
          "type": "string"
        },
        {
          "internalType": "string[1]",
          "name": "_ppi",
          "type": "string[1]"
        },
        {
          "internalType": "string[1]",
          "name": "_spi",
          "type": "string[1]"
        },
        {
          "internalType": "string",
          "name": "_percentage12",
          "type": "string"
        },
        {
          "internalType": "uint256",
          "name": "_backLogs",
          "type": "uint256"
        }
      ],
      "name": "registerStudent",
      "outputs": [],
      "stateMutability": "nonpayable",
      "type": "function"
    },
    {
      "inputs": [
        {
          "internalType": "uint256",
          "name": "_companyId",
          "type": "uint256"
        }
      ],
      "name": "startRegistration",
      "outputs": [],
      "stateMutability": "nonpayable",
      "type": "function"
    },
    {
      "inputs": [
        {
          "internalType": "address",
          "name": "",
          "type": "address"
        }
      ],
      "name": "studentAddress",
      "outputs": [
        {
          "internalType": "bool",
          "name": "",
          "type": "bool"
        }
      ],
      "stateMutability": "view",
      "type": "function"
    },
    {
      "inputs": [
        {
          "internalType": "string",
          "name": "_rollno",
          "type": "string"
        }
      ],
      "name": "studentExists",
      "outputs": [
        {
          "internalType": "bool",
          "name": "",
          "type": "bool"
        }
      ],
      "stateMutability": "view",
      "type": "function"
    },
    {
      "inputs": [
        {
          "internalType": "address",
          "name": "",
          "type": "address"
        }
      ],
      "name": "studentLoggedIn",
      "outputs": [
        {
          "internalType": "bool",
          "name": "",
          "type": "bool"
        }
      ],
      "stateMutability": "view",
      "type": "function"
    },
    {
      "inputs": [
        {
          "internalType": "string",
          "name": "",
          "type": "string"
        }
      ],
      "name": "students",
      "outputs": [
        {
          "internalType": "string",
          "name": "rollno",
          "type": "string"
        },
        {
          "internalType": "address payable",
          "name": "student",
          "type": "address"
        },
        {
          "internalType": "string",
          "name": "name",
          "type": "string"
        },
        {
          "internalType": "string",
          "name": "password",
          "type": "string"
        },
        {
          "internalType": "string",
          "name": "percentage12",
          "type": "string"
        },
        {
          "internalType": "uint256",
          "name": "backLogs",
          "type": "uint256"
        },
        {
          "internalType": "string",
          "name": "resume",
          "type": "string"
        },
        {
          "internalType": "bool",
          "name": "isPlaced",
          "type": "bool"
        },
        {
          "internalType": "bool",
          "name": "isInProgress",
          "type": "bool"
        },
        {
          "internalType": "uint256",
          "name": "companyId",
          "type": "uint256"
        },
        {
          "internalType": "uint256",
          "name": "updateLeft",
          "type": "uint256"
        },
        {
          "internalType": "string",
          "name": "LORStatus",
          "type": "string"
        }
      ],
      "stateMutability": "view",
      "type": "function"
    },
    {
      "inputs": [],
      "name": "totalCompanies",
      "outputs": [
        {
          "internalType": "uint256",
          "name": "",
          "type": "uint256"
        }
      ],
      "stateMutability": "view",
      "type": "function"
    },
    {
      "inputs": [],
      "name": "totalFaculties",
      "outputs": [
        {
          "internalType": "uint256",
          "name": "",
          "type": "uint256"
        }
      ],
      "stateMutability": "view",
      "type": "function"
    },
    {
      "inputs": [],
      "name": "totalStudents",
      "outputs": [
        {
          "internalType": "uint256",
          "name": "",
          "type": "uint256"
        }
      ],
      "stateMutability": "view",
      "type": "function"
    }
  ],
  "bytecode": "0x608060405234801561001057600080fd5b5061402a806100206000396000f3fe608060405234801561001057600080fd5b50600436106101fb5760003560e01c80638524e4441161011a578063a39d01f8116100ad578063ca26e03a1161007c578063ca26e03a14610692578063e28406e7146106c5578063f33049af146106f5578063f8643b0b14610711578063f9892ee214610741576101fb565b8063a39d01f8146105db578063c2edfa50146105f7578063c6ddfefb14610627578063c7ef6bfb14610657576101fb565b806393f66ab9116100e957806393f66ab914610541578063943660201461055d57806397bbcb931461058d5780639852bf8e146105bd576101fb565b80638524e4441461049557806385741ba7146104b1578063890cfd3d146104e15780639079dbff14610511576101fb565b80633b4cc7a3116101925780634e3b3854116101615780634e3b38541461040f57806353f274731461042b5780635c167d57146104495780636dd0804714610465576101fb565b80633b4cc7a3146103615780633dd3b3be1461037f57806340165592146103af5780634762d2fe146103df576101fb565b80632813d19d116101ce5780632813d19d146102ac5780632ed1f9b5146102e557806336c756e41461030157806338e36fb514610331576101fb565b80630635950f146102005780631b3ec26e1461021c5780631e750c171461024c57806325cfb44c1461027c575b600080fd5b61021a60048036038101906102159190613115565b610771565b005b61023660048036038101906102319190613027565b61091c565b6040516102439190613782565b60405180910390f35b61026660048036038101906102619190613027565b61093c565b6040516102739190613782565b60405180910390f35b61029660048036038101906102919190613491565b61095c565b6040516102a39190613782565b60405180910390f35b6102c660048036038101906102c19190613464565b610a8f565b6040516102dc9a999897969594939291906138fd565b60405180910390f35b6102ff60048036038101906102fa9190613464565b610ebb565b005b61031b6004803603810190610316919061309d565b610f1e565b6040516103289190613782565b60405180910390f35b61034b60048036038101906103469190613464565b610fec565b6040516103589190613782565b60405180910390f35b6103696110a9565b6040516103769190613ada565b60405180910390f35b61039960048036038101906103949190613491565b6110af565b6040516103a69190613782565b60405180910390f35b6103c960048036038101906103c49190613491565b611172565b6040516103d69190613782565b60405180910390f35b6103f960048036038101906103f49190613027565b611293565b6040516104069190613782565b60405180910390f35b61042960048036038101906104249190613306565b6112b3565b005b6104336115d3565b6040516104409190613ada565b60405180910390f35b610463600480360381019061045e9190613464565b6115d9565b005b61047f600480360381019061047a9190613027565b61163c565b60405161048c9190613782565b60405180910390f35b6104af60048036038101906104aa91906131bc565b61165c565b005b6104cb60048036038101906104c69190613054565b6119c0565b6040516104d8919061379d565b60405180910390f35b6104fb60048036038101906104f6919061309d565b611a87565b6040516105089190613782565b60405180910390f35b61052b60048036038101906105269190613491565b611bba565b6040516105389190613782565b60405180910390f35b61055b60048036038101906105569190613491565b611ced565b005b61057760048036038101906105729190613464565b611e68565b604051610584919061379d565b60405180910390f35b6105a760048036038101906105a29190613027565b611f10565b6040516105b49190613782565b60405180910390f35b6105c5611f30565b6040516105d29190613ada565b60405180910390f35b6105f560048036038101906105f09190613491565b611f36565b005b610611600480360381019061060c9190613027565b612072565b60405161061e9190613782565b60405180910390f35b610641600480360381019061063c9190613054565b612092565b60405161064e9190613782565b60405180910390f35b610671600480360381019061066c9190613054565b61215a565b6040516106899c9b9a99989796959493929190613819565b60405180910390f35b6106ac60048036038101906106a79190613464565b61253a565b6040516106bc94939291906137bf565b60405180910390f35b6106df60048036038101906106da9190613054565b612722565b6040516106ec919061379d565b60405180910390f35b61070f600480360381019061070a9190613464565b6127e9565b005b61072b60048036038101906107269190613464565b61284c565b6040516107389190613782565b60405180910390f35b61075b60048036038101906107569190613491565b612909565b6040516107689190613782565b60405180910390f35b61077a336129cc565b156107ba576040517f08c379a00000000000000000000000000000000000000000000000000000000081526004016107b190613a5a565b60405180910390fd5b600260008154809291906107cd90613cd6565b919050555060405180608001604052808481526020013373ffffffffffffffffffffffffffffffffffffffff16815260200182815260200183815250600460006002548152602001908152602001600020600082015181600001908051906020019061083a929190612d23565b5060208201518160010160006101000a81548173ffffffffffffffffffffffffffffffffffffffff021916908373ffffffffffffffffffffffffffffffffffffffff160217905550604082015181600201908051906020019061089e929190612d23565b5060608201518160030190805190602001906108bb929190612d23565b509050506001600760003373ffffffffffffffffffffffffffffffffffffffff1673ffffffffffffffffffffffffffffffffffffffff16815260200190815260200160002060006101000a81548160ff021916908315150217905550505050565b600a6020528060005260406000206000915054906101000a900460ff1681565b60096020528060005260406000206000915054906101000a900460ff1681565b600061096783610fec565b6109a6576040517f08c379a000000000000000000000000000000000000000000000000000000000815260040161099d90613aba565b60405180910390fd5b6109b08383612909565b6109ef576040517f08c379a00000000000000000000000000000000000000000000000000000000081526004016109e690613a3a565b60405180910390fd5b610a2d6040518060400160405280601181526020017f5375636365737366756c206c6f67696e21000000000000000000000000000000815250612ad3565b6001600a60003373ffffffffffffffffffffffffffffffffffffffff1673ffffffffffffffffffffffffffffffffffffffff16815260200190815260200160002060006101000a81548160ff0219169083151502179055506001905092915050565b6005602052806000526040600020600091509050806000018054610ab290613c73565b80601f0160208091040260200160405190810160405280929190818152602001828054610ade90613c73565b8015610b2b5780601f10610b0057610100808354040283529160200191610b2b565b820191906000526020600020905b815481529060010190602001808311610b0e57829003601f168201915b5050505050908060010160009054906101000a900473ffffffffffffffffffffffffffffffffffffffff1690806002018054610b6690613c73565b80601f0160208091040260200160405190810160405280929190818152602001828054610b9290613c73565b8015610bdf5780601f10610bb457610100808354040283529160200191610bdf565b820191906000526020600020905b815481529060010190602001808311610bc257829003601f168201915b505050505090806003018054610bf490613c73565b80601f0160208091040260200160405190810160405280929190818152602001828054610c2090613c73565b8015610c6d5780601f10610c4257610100808354040283529160200191610c6d565b820191906000526020600020905b815481529060010190602001808311610c5057829003601f168201915b505050505090806004015490806005018054610c8890613c73565b80601f0160208091040260200160405190810160405280929190818152602001828054610cb490613c73565b8015610d015780601f10610cd657610100808354040283529160200191610d01565b820191906000526020600020905b815481529060010190602001808311610ce457829003601f168201915b505050505090806006018054610d1690613c73565b80601f0160208091040260200160405190810160405280929190818152602001828054610d4290613c73565b8015610d8f5780601f10610d6457610100808354040283529160200191610d8f565b820191906000526020600020905b815481529060010190602001808311610d7257829003601f168201915b50505050509080600901549080600a018054610daa90613c73565b80601f0160208091040260200160405190810160405280929190818152602001828054610dd690613c73565b8015610e235780601f10610df857610100808354040283529160200191610e23565b820191906000526020600020905b815481529060010190602001808311610e0657829003601f168201915b50505050509080600b018054610e3890613c73565b80601f0160208091040260200160405190810160405280929190818152602001828054610e6490613c73565b8015610eb15780601f10610e8657610100808354040283529160200191610eb1565b820191906000526020600020905b815481529060010190602001808311610e9457829003601f168201915b505050505090508a565b6040518060400160405280601381526020017f6f70656e466f72526567697374726174696f6e0000000000000000000000000081525060056000838152602001908152602001600020600b019080519060200190610f1a929190612d23565b5050565b6000610fd3600384604051610f33919061371e565b90815260200160405180910390206003018054610f4f90613c73565b80601f0160208091040260200160405190810160405280929190818152602001828054610f7b90613c73565b8015610fc85780601f10610f9d57610100808354040283529160200191610fc8565b820191906000526020600020905b815481529060010190602001808311610fab57829003601f168201915b505050505083612b6c565b15610fe15760019050610fe6565b600090505b92915050565b60003373ffffffffffffffffffffffffffffffffffffffff166004600084815260200190815260200160002060010160009054906101000a900473ffffffffffffffffffffffffffffffffffffffff1673ffffffffffffffffffffffffffffffffffffffff16141561106157600190506110a4565b61109f6040518060400160405280601681526020017f466163756c7479206e6f74207265676973746572656400000000000000000000815250612ad3565b600090505b919050565b60015481565b60006111596005600085815260200190815260200160002060020180546110d590613c73565b80601f016020809104026020016040519081016040528092919081815260200182805461110190613c73565b801561114e5780601f106111235761010080835404028352916020019161114e565b820191906000526020600020905b81548152906001019060200180831161113157829003601f168201915b505050505083612b6c565b15611167576001905061116c565b600090505b92915050565b600060011515600383604051611188919061371e565b908152602001604051809103902060090160009054906101000a900460ff161515141561128857600560006003846040516111c3919061371e565b9081526020016040518091039020600a015481526020019081526020016000206004015460056000858152602001908152602001600020600401541161120c576000905061128d565b600060038360405161121e919061371e565b9081526020016040518091039020600b0154101561123f576000905061128d565b6005600084815260200190815260200160002060090154600383604051611266919061371e565b9081526020016040518091039020600701541115611287576000905061128d565b5b600190505b92915050565b600b6020528060005260406000206000915054906101000a900460ff1681565b6112bc336129cc565b156112fc576040517f08c379a00000000000000000000000000000000000000000000000000000000081526004016112f390613a5a565b60405180910390fd5b6001600081548092919061130f90613cd6565b919050555060606040518061018001604052808a81526020013373ffffffffffffffffffffffffffffffffffffffff1681526020018881526020018981526020018781526020018681526020018581526020018281526020018281526020018481526020018381526020016040518060400160405280600681526020017f636c6f736564000000000000000000000000000000000000000000000000000081525081525060056000600154815260200190815260200160002060008201518160000190805190602001906113e4929190612d23565b5060208201518160010160006101000a81548173ffffffffffffffffffffffffffffffffffffffff021916908373ffffffffffffffffffffffffffffffffffffffff1602179055506040820151816002019080519060200190611448929190612d23565b506060820151816003019080519060200190611465929190612d23565b506080820151816004015560a082015181600501908051906020019061148c929190612d23565b5060c08201518160060190805190602001906114a9929190612d23565b5060e08201518160070190805190602001906114c6929190612da9565b506101008201518160080190805190602001906114e4929190612da9565b50610120820151816009015561014082015181600a01908051906020019061150d929190612d23565b5061016082015181600b01908051906020019061152b929190612d23565b509050506001600860003373ffffffffffffffffffffffffffffffffffffffff1673ffffffffffffffffffffffffffffffffffffffff16815260200190815260200160002060006101000a81548160ff0219169083151502179055506115c86040518060400160405280600c81526020017f436f6d706e61792049643a200000000000000000000000000000000000000000815250600154612bc5565b505050505050505050565b60025481565b6040518060400160405280600a81526020017f696e50726f67726573730000000000000000000000000000000000000000000081525060056000838152602001908152602001600020600b019080519060200190611638929190612d23565b5050565b60086020528060005260406000206000915054906101000a900460ff1681565b60008081548092919061166e90613cd6565b9190505550604051806101c001604052808881526020013373ffffffffffffffffffffffffffffffffffffffff16815260200187815260200186815260200185815260200184815260200183815260200182815260200160405180602001604052806000815250815260200160001515815260200160001515815260200160008152602001600281526020016040518060400160405280600a81526020017f6e6f744170706c69656400000000000000000000000000000000000000000000815250815250600388604051611743919061371e565b9081526020016040518091039020600082015181600001908051906020019061176d929190612d23565b5060208201518160010160006101000a81548173ffffffffffffffffffffffffffffffffffffffff021916908373ffffffffffffffffffffffffffffffffffffffff16021790555060408201518160020190805190602001906117d1929190612d23565b5060608201518160030190805190602001906117ee929190612d23565b50608082015181600401906001611806929190612e09565b5060a08201518160050190600161181e929190612e09565b5060c082015181600601908051906020019061183b929190612d23565b5060e08201518160070155610100820151816008019080519060200190611863929190612d23565b506101208201518160090160006101000a81548160ff0219169083151502179055506101408201518160090160016101000a81548160ff02191690831515021790555061016082015181600a015561018082015181600b01556101a082015181600c0190805190602001906118d9929190612d23565b509050506001600660003373ffffffffffffffffffffffffffffffffffffffff1673ffffffffffffffffffffffffffffffffffffffff16815260200190815260200160002060006101000a81548160ff0219169083151502179055506119766040518060400160405280600f81526020017f53747564656e7420636f756e743a200000000000000000000000000000000000815250600054612bc5565b6119b76040518060400160405280600d81526020017f53747564656e74207070693a2000000000000000000000000000000000000000815250600054612bc5565b50505050505050565b60606003826040516119d2919061371e565b90815260200160405180910390206005016000600181106119f6576119f5613d87565b5b018054611a0290613c73565b80601f0160208091040260200160405190810160405280929190818152602001828054611a2e90613c73565b8015611a7b5780601f10611a5057610100808354040283529160200191611a7b565b820191906000526020600020905b815481529060010190602001808311611a5e57829003601f168201915b50505050509050919050565b6000611a9283612092565b611ad1576040517f08c379a0000000000000000000000000000000000000000000000000000000008152600401611ac8906139fa565b60405180910390fd5b611adb8383610f1e565b611b1a576040517f08c379a0000000000000000000000000000000000000000000000000000000008152600401611b1190613a3a565b60405180910390fd5b611b586040518060400160405280601181526020017f5375636365737366756c206c6f67696e21000000000000000000000000000000815250612ad3565b6001600960003373ffffffffffffffffffffffffffffffffffffffff1673ffffffffffffffffffffffffffffffffffffffff16815260200190815260200160002060006101000a81548160ff0219169083151502179055506001905092915050565b6000611bc58361284c565b611c04576040517f08c379a0000000000000000000000000000000000000000000000000000000008152600401611bfb90613a7a565b60405180910390fd5b611c0e83836110af565b611c4d576040517f08c379a0000000000000000000000000000000000000000000000000000000008152600401611c4490613a3a565b60405180910390fd5b611c8b6040518060400160405280601181526020017f5375636365737366756c206c6f67696e21000000000000000000000000000000815250612ad3565b6001600b60003373ffffffffffffffffffffffffffffffffffffffff1673ffffffffffffffffffffffffffffffffffffffff16815260200190815260200160002060006101000a81548160ff0219169083151502179055506001905092915050565b60006040518060400160405280601381526020017f6f70656e466f72526567697374726174696f6e00000000000000000000000000815250905080604051602001611d38919061371e565b6040516020818303038152906040528051906020012060056000858152602001908152602001600020600b01604051602001611d749190613735565b6040516020818303038152906040528051906020012014611dca576040517f08c379a0000000000000000000000000000000000000000000000000000000008152600401611dc190613a9a565b60405180910390fd5b611dd48383611172565b611e13576040517f08c379a0000000000000000000000000000000000000000000000000000000008152600401611e0a90613a1a565b60405180910390fd5b6005600084815260200190815260200160002060080182908060018154018082558091505060019003906000526020600020016000909190919091509080519060200190611e62929190612d23565b50505050565b606060056000838152602001908152602001600020600b018054611e8b90613c73565b80601f0160208091040260200160405190810160405280929190818152602001828054611eb790613c73565b8015611f045780601f10611ed957610100808354040283529160200191611f04565b820191906000526020600020905b815481529060010190602001808311611ee757829003601f168201915b50505050509050919050565b60076020528060005260406000206000915054906101000a900460ff1681565b60005481565b6005600083815260200190815260200160002060070181908060018154018082558091505060019003906000526020600020016000909190919091509080519060200190611f85929190612d23565b50600060405180602001604052806000815250905080604051602001611fab919061371e565b60405160208183030381529060405280519060200120600383604051611fd1919061371e565b9081526020016040518091039020600a0154604051602001611ff3919061374c565b6040516020818303038152906040528051906020012014156120475760038260405161201f919061371e565b9081526020016040518091039020600b01600081548092919061204190613c49565b91905055505b82600383604051612058919061371e565b9081526020016040518091039020600a0181905550505050565b60066020528060005260406000206000915054906101000a900460ff1681565b60003373ffffffffffffffffffffffffffffffffffffffff166003836040516120bb919061371e565b908152602001604051809103902060010160009054906101000a900473ffffffffffffffffffffffffffffffffffffffff1673ffffffffffffffffffffffffffffffffffffffff1614156121125760019050612155565b6121506040518060400160405280601681526020017f53747564656e74206e6f74207265676973746572656400000000000000000000815250612ad3565b600090505b919050565b60038180516020810182018051848252602083016020850120818352809550505050505060009150905080600001805461219390613c73565b80601f01602080910402602001604051908101604052809291908181526020018280546121bf90613c73565b801561220c5780601f106121e15761010080835404028352916020019161220c565b820191906000526020600020905b8154815290600101906020018083116121ef57829003601f168201915b5050505050908060010160009054906101000a900473ffffffffffffffffffffffffffffffffffffffff169080600201805461224790613c73565b80601f016020809104026020016040519081016040528092919081815260200182805461227390613c73565b80156122c05780601f10612295576101008083540402835291602001916122c0565b820191906000526020600020905b8154815290600101906020018083116122a357829003601f168201915b5050505050908060030180546122d590613c73565b80601f016020809104026020016040519081016040528092919081815260200182805461230190613c73565b801561234e5780601f106123235761010080835404028352916020019161234e565b820191906000526020600020905b81548152906001019060200180831161233157829003601f168201915b50505050509080600601805461236390613c73565b80601f016020809104026020016040519081016040528092919081815260200182805461238f90613c73565b80156123dc5780601f106123b1576101008083540402835291602001916123dc565b820191906000526020600020905b8154815290600101906020018083116123bf57829003601f168201915b5050505050908060070154908060080180546123f790613c73565b80601f016020809104026020016040519081016040528092919081815260200182805461242390613c73565b80156124705780601f1061244557610100808354040283529160200191612470565b820191906000526020600020905b81548152906001019060200180831161245357829003601f168201915b5050505050908060090160009054906101000a900460ff16908060090160019054906101000a900460ff169080600a01549080600b01549080600c0180546124b790613c73565b80601f01602080910402602001604051908101604052809291908181526020018280546124e390613c73565b80156125305780601f1061250557610100808354040283529160200191612530565b820191906000526020600020905b81548152906001019060200180831161251357829003601f168201915b505050505090508c565b600460205280600052604060002060009150905080600001805461255d90613c73565b80601f016020809104026020016040519081016040528092919081815260200182805461258990613c73565b80156125d65780601f106125ab576101008083540402835291602001916125d6565b820191906000526020600020905b8154815290600101906020018083116125b957829003601f168201915b5050505050908060010160009054906101000a900473ffffffffffffffffffffffffffffffffffffffff169080600201805461261190613c73565b80601f016020809104026020016040519081016040528092919081815260200182805461263d90613c73565b801561268a5780601f1061265f5761010080835404028352916020019161268a565b820191906000526020600020905b81548152906001019060200180831161266d57829003601f168201915b50505050509080600301805461269f90613c73565b80601f01602080910402602001604051908101604052809291908181526020018280546126cb90613c73565b80156127185780601f106126ed57610100808354040283529160200191612718565b820191906000526020600020905b8154815290600101906020018083116126fb57829003601f168201915b5050505050905084565b6060600382604051612734919061371e565b908152602001604051809103902060040160006001811061275857612757613d87565b5b01805461276490613c73565b80601f016020809104026020016040519081016040528092919081815260200182805461279090613c73565b80156127dd5780601f106127b2576101008083540402835291602001916127dd565b820191906000526020600020905b8154815290600101906020018083116127c057829003601f168201915b50505050509050919050565b6040518060400160405280600681526020017f636c6f736564000000000000000000000000000000000000000000000000000081525060056000838152602001908152602001600020600b019080519060200190612848929190612d23565b5050565b60003373ffffffffffffffffffffffffffffffffffffffff166005600084815260200190815260200160002060010160009054906101000a900473ffffffffffffffffffffffffffffffffffffffff1673ffffffffffffffffffffffffffffffffffffffff1614156128c15760019050612904565b6128ff6040518060400160405280601681526020017f436f6d70616e79206e6f74207265676973746572656400000000000000000000815250612ad3565b600090505b919050565b60006129b360046000858152602001908152602001600020600201805461292f90613c73565b80601f016020809104026020016040519081016040528092919081815260200182805461295b90613c73565b80156129a85780601f1061297d576101008083540402835291602001916129a8565b820191906000526020600020905b81548152906001019060200180831161298b57829003601f168201915b505050505083612b6c565b156129c157600190506129c6565b600090505b92915050565b60006129d782612c61565b600660008373ffffffffffffffffffffffffffffffffffffffff1673ffffffffffffffffffffffffffffffffffffffff16815260200190815260200160002060009054906101000a900460ff1680612a785750600760008373ffffffffffffffffffffffffffffffffffffffff1673ffffffffffffffffffffffffffffffffffffffff16815260200190815260200160002060009054906101000a900460ff165b80612acc5750600860008373ffffffffffffffffffffffffffffffffffffffff1673ffffffffffffffffffffffffffffffffffffffff16815260200190815260200160002060009054906101000a900460ff165b9050919050565b612b6981604051602401612ae7919061379d565b6040516020818303038152906040527f41304fac000000000000000000000000000000000000000000000000000000007bffffffffffffffffffffffffffffffffffffffffffffffffffffffff19166020820180517bffffffffffffffffffffffffffffffffffffffffffffffffffffffff8381831617835250505050612cfa565b50565b600081604051602001612b7f919061371e565b6040516020818303038152906040528051906020012083604051602001612ba6919061371e565b6040516020818303038152906040528051906020012014905092915050565b612c5d8282604051602401612bdb9291906139ca565b6040516020818303038152906040527fb60e72cc000000000000000000000000000000000000000000000000000000007bffffffffffffffffffffffffffffffffffffffffffffffffffffffff19166020820180517bffffffffffffffffffffffffffffffffffffffffffffffffffffffff8381831617835250505050612cfa565b5050565b612cf781604051602401612c759190613767565b6040516020818303038152906040527f2c2ecbc2000000000000000000000000000000000000000000000000000000007bffffffffffffffffffffffffffffffffffffffffffffffffffffffff19166020820180517bffffffffffffffffffffffffffffffffffffffffffffffffffffffff8381831617835250505050612cfa565b50565b60008151905060006a636f6e736f6c652e6c6f679050602083016000808483855afa5050505050565b828054612d2f90613c73565b90600052602060002090601f016020900481019282612d515760008555612d98565b82601f10612d6a57805160ff1916838001178555612d98565b82800160010185558215612d98579182015b82811115612d97578251825591602001919060010190612d7c565b5b509050612da59190612e5c565b5090565b828054828255906000526020600020908101928215612df8579160200282015b82811115612df7578251829080519060200190612de7929190612d23565b5091602001919060010190612dc9565b5b509050612e059190612e79565b5090565b8260018101928215612e4b579160200282015b82811115612e4a578251829080519060200190612e3a929190612d23565b5091602001919060010190612e1c565b5b509050612e589190612e79565b5090565b5b80821115612e75576000816000905550600101612e5d565b5090565b5b80821115612e995760008181612e909190612e9d565b50600101612e7a565b5090565b508054612ea990613c73565b6000825580601f10612ebb5750612eda565b601f016020900490600052602060002090810190612ed99190612e5c565b5b50565b6000612ef0612eeb84613b1a565b613af5565b90508082856020860282011115612f0a57612f09613dea565b5b60005b85811015612f5857813567ffffffffffffffff811115612f3057612f2f613de5565b5b808601612f3d8982612fe4565b85526020850194506020840193505050600181019050612f0d565b5050509392505050565b6000612f75612f7084613b40565b613af5565b905082815260208101848484011115612f9157612f90613def565b5b612f9c848285613c07565b509392505050565b600081359050612fb381613fc6565b92915050565b600082601f830112612fce57612fcd613de5565b5b6001612fdb848285612edd565b91505092915050565b600082601f830112612ff957612ff8613de5565b5b8135613009848260208601612f62565b91505092915050565b60008135905061302181613fdd565b92915050565b60006020828403121561303d5761303c613df9565b5b600061304b84828501612fa4565b91505092915050565b60006020828403121561306a57613069613df9565b5b600082013567ffffffffffffffff81111561308857613087613df4565b5b61309484828501612fe4565b91505092915050565b600080604083850312156130b4576130b3613df9565b5b600083013567ffffffffffffffff8111156130d2576130d1613df4565b5b6130de85828601612fe4565b925050602083013567ffffffffffffffff8111156130ff576130fe613df4565b5b61310b85828601612fe4565b9150509250929050565b60008060006060848603121561312e5761312d613df9565b5b600084013567ffffffffffffffff81111561314c5761314b613df4565b5b61315886828701612fe4565b935050602084013567ffffffffffffffff81111561317957613178613df4565b5b61318586828701612fe4565b925050604084013567ffffffffffffffff8111156131a6576131a5613df4565b5b6131b286828701612fe4565b9150509250925092565b600080600080600080600060e0888a0312156131db576131da613df9565b5b600088013567ffffffffffffffff8111156131f9576131f8613df4565b5b6132058a828b01612fe4565b975050602088013567ffffffffffffffff81111561322657613225613df4565b5b6132328a828b01612fe4565b965050604088013567ffffffffffffffff81111561325357613252613df4565b5b61325f8a828b01612fe4565b955050606088013567ffffffffffffffff8111156132805761327f613df4565b5b61328c8a828b01612fb9565b945050608088013567ffffffffffffffff8111156132ad576132ac613df4565b5b6132b98a828b01612fb9565b93505060a088013567ffffffffffffffff8111156132da576132d9613df4565b5b6132e68a828b01612fe4565b92505060c06132f78a828b01613012565b91505092959891949750929550565b600080600080600080600080610100898b03121561332757613326613df9565b5b600089013567ffffffffffffffff81111561334557613344613df4565b5b6133518b828c01612fe4565b985050602089013567ffffffffffffffff81111561337257613371613df4565b5b61337e8b828c01612fe4565b975050604089013567ffffffffffffffff81111561339f5761339e613df4565b5b6133ab8b828c01612fe4565b96505060606133bc8b828c01613012565b955050608089013567ffffffffffffffff8111156133dd576133dc613df4565b5b6133e98b828c01612fe4565b94505060a089013567ffffffffffffffff81111561340a57613409613df4565b5b6134168b828c01612fe4565b93505060c06134278b828c01613012565b92505060e089013567ffffffffffffffff81111561344857613447613df4565b5b6134548b828c01612fe4565b9150509295985092959890939650565b60006020828403121561347a57613479613df9565b5b600061348884828501613012565b91505092915050565b600080604083850312156134a8576134a7613df9565b5b60006134b685828601613012565b925050602083013567ffffffffffffffff8111156134d7576134d6613df4565b5b6134e385828601612fe4565b9150509250929050565b6134f681613bbf565b82525050565b61350581613bad565b82525050565b61351481613bd1565b82525050565b600061352582613b86565b61352f8185613b91565b935061353f818560208601613c16565b61354881613dfe565b840191505092915050565b600061355e82613b86565b6135688185613ba2565b9350613578818560208601613c16565b80840191505092915050565b6000815461359181613c73565b61359b8186613ba2565b945060018216600081146135b657600181146135c7576135fa565b60ff198316865281860193506135fa565b6135d085613b71565b60005b838110156135f2578154818901526001820191506020810190506135d3565b838801955050505b50505092915050565b6000613610602e83613b91565b915061361b82613e0f565b604082019050919050565b6000613633603783613b91565b915061363e82613e5e565b604082019050919050565b6000613656601983613b91565b915061366182613ead565b602082019050919050565b6000613679602083613b91565b915061368482613ed6565b602082019050919050565b600061369c602e83613b91565b91506136a782613eff565b604082019050919050565b60006136bf601c83613b91565b91506136ca82613f4e565b602082019050919050565b60006136e2602e83613b91565b91506136ed82613f77565b604082019050919050565b61370181613bfd565b82525050565b61371861371382613bfd565b613d1f565b82525050565b600061372a8284613553565b915081905092915050565b60006137418284613584565b915081905092915050565b60006137588284613707565b60208201915081905092915050565b600060208201905061377c60008301846134fc565b92915050565b6000602082019050613797600083018461350b565b92915050565b600060208201905081810360008301526137b7818461351a565b905092915050565b600060808201905081810360008301526137d9818761351a565b90506137e860208301866134ed565b81810360408301526137fa818561351a565b9050818103606083015261380e818461351a565b905095945050505050565b6000610180820190508181036000830152613834818f61351a565b9050613843602083018e6134ed565b8181036040830152613855818d61351a565b90508181036060830152613869818c61351a565b9050818103608083015261387d818b61351a565b905061388c60a083018a6136f8565b81810360c083015261389e818961351a565b90506138ad60e083018861350b565b6138bb61010083018761350b565b6138c96101208301866136f8565b6138d76101408301856136f8565b8181036101608301526138ea818461351a565b90509d9c50505050505050505050505050565b6000610140820190508181036000830152613918818d61351a565b9050613927602083018c6134ed565b8181036040830152613939818b61351a565b9050818103606083015261394d818a61351a565b905061395c60808301896136f8565b81810360a083015261396e818861351a565b905081810360c0830152613982818761351a565b905061399160e08301866136f8565b8181036101008301526139a4818561351a565b90508181036101208301526139b9818461351a565b90509b9a5050505050505050505050565b600060408201905081810360008301526139e4818561351a565b90506139f360208301846136f8565b9392505050565b60006020820190508181036000830152613a1381613603565b9050919050565b60006020820190508181036000830152613a3381613626565b9050919050565b60006020820190508181036000830152613a5381613649565b9050919050565b60006020820190508181036000830152613a738161366c565b9050919050565b60006020820190508181036000830152613a938161368f565b9050919050565b60006020820190508181036000830152613ab3816136b2565b9050919050565b60006020820190508181036000830152613ad3816136d5565b9050919050565b6000602082019050613aef60008301846136f8565b92915050565b6000613aff613b10565b9050613b0b8282613ca5565b919050565b6000604051905090565b600067ffffffffffffffff821115613b3557613b34613db6565b5b602082029050919050565b600067ffffffffffffffff821115613b5b57613b5a613db6565b5b613b6482613dfe565b9050602081019050919050565b60008190508160005260206000209050919050565b600081519050919050565b600082825260208201905092915050565b600081905092915050565b6000613bb882613bdd565b9050919050565b6000613bca82613bdd565b9050919050565b60008115159050919050565b600073ffffffffffffffffffffffffffffffffffffffff82169050919050565b6000819050919050565b82818337600083830152505050565b60005b83811015613c34578082015181840152602081019050613c19565b83811115613c43576000848401525b50505050565b6000613c5482613bfd565b91506000821415613c6857613c67613d29565b5b600182039050919050565b60006002820490506001821680613c8b57607f821691505b60208210811415613c9f57613c9e613d58565b5b50919050565b613cae82613dfe565b810181811067ffffffffffffffff82111715613ccd57613ccc613db6565b5b80604052505050565b6000613ce182613bfd565b91507fffffffffffffffffffffffffffffffffffffffffffffffffffffffffffffffff821415613d1457613d13613d29565b5b600182019050919050565b6000819050919050565b7f4e487b7100000000000000000000000000000000000000000000000000000000600052601160045260246000fd5b7f4e487b7100000000000000000000000000000000000000000000000000000000600052602260045260246000fd5b7f4e487b7100000000000000000000000000000000000000000000000000000000600052603260045260246000fd5b7f4e487b7100000000000000000000000000000000000000000000000000000000600052604160045260246000fd5b600080fd5b600080fd5b600080fd5b600080fd5b600080fd5b6000601f19601f8301169050919050565b7f5f5f5f53747564656e74206e6f7420726567697374657265642077697468207460008201527f686973206163636f756e745f5f5f000000000000000000000000000000000000602082015250565b7f5f5f5f596f7520617265206e6f7420656c696769626c6520746f206170706c7960008201527f20666f72207468697320636f6d61706e79203a285f5f5f000000000000000000602082015250565b7f5f5f5f496e76616c69642063726564656e7469616c735f5f5f00000000000000600082015250565b7f5f5f5f506c656173652075736520616e6f7468657220616464726573735f5f5f600082015250565b7f5f5f5f436f6d70616e79206e6f7420726567697374657265642077697468207460008201527f686973206163636f756e745f5f5f000000000000000000000000000000000000602082015250565b7f4e6f74204f70656e20666f7220526567697374726174696f6e203a2800000000600082015250565b7f5f5f5f466163756c7479206e6f7420726567697374657265642077697468207460008201527f686973206163636f756e745f5f5f000000000000000000000000000000000000602082015250565b613fcf81613bad565b8114613fda57600080fd5b50565b613fe681613bfd565b8114613ff157600080fd5b5056fea26469706673582212206a885cfa297847422b1f7fff57a59800c675c34b60b9820aaedd6ede007013cd64736f6c63430008070033",
  "linkReferences": {},
  "deployedLinkReferences": {}
}