{
  "_format": "hh-sol-artifact-1",
  "contractName": "Placement",
  "sourceName": "src/backend/contract/Placement.sol",
  "abi": [
    {
      "inputs": [
        {
          "internalType": "uint256",
          "name": "_companyId",
          "type": "uint256"
        },
        {
          "internalType": "string",
          "name": "_studentRollno",
          "type": "string"
        }
      ],
      "name": "addSelected",
      "outputs": [],
      "stateMutability": "nonpayable",
      "type": "function"
    },
    {
      "inputs": [
        {
          "internalType": "uint256",
          "name": "_companyId",
          "type": "uint256"
        },
        {
          "internalType": "string",
          "name": "_studentRollno",
          "type": "string"
        }
      ],
      "name": "applyForCompany",
      "outputs": [],
      "stateMutability": "nonpayable",
      "type": "function"
    },
    {
      "inputs": [
        {
          "internalType": "uint256",
          "name": "",
          "type": "uint256"
        }
      ],
      "name": "companies",
      "outputs": [
        {
          "internalType": "string",
          "name": "name",
          "type": "string"
        },
        {
          "internalType": "address payable",
          "name": "company",
          "type": "address"
        },
        {
          "internalType": "string",
          "name": "password",
          "type": "string"
        },
        {
          "internalType": "string",
          "name": "description",
          "type": "string"
        },
        {
          "internalType": "uint256",
          "name": "category",
          "type": "uint256"
        },
        {
          "internalType": "string",
          "name": "ctc",
          "type": "string"
        },
        {
          "internalType": "uint256",
          "name": "minBackLogs",
          "type": "uint256"
        },
        {
          "internalType": "string",
          "name": "minPPI",
          "type": "string"
        },
        {
          "internalType": "uint256",
          "name": "minStudents",
          "type": "uint256"
        },
        {
          "internalType": "string",
          "name": "status",
          "type": "string"
        }
      ],
      "stateMutability": "view",
      "type": "function"
    },
    {
      "inputs": [
        {
          "internalType": "address",
          "name": "",
          "type": "address"
        }
      ],
      "name": "companyAddress",
      "outputs": [
        {
          "internalType": "bool",
          "name": "",
          "type": "bool"
        }
      ],
      "stateMutability": "view",
      "type": "function"
    },
    {
      "inputs": [
        {
          "internalType": "uint256",
          "name": "_companyId",
          "type": "uint256"
        }
      ],
      "name": "companyExists",
      "outputs": [
        {
          "internalType": "bool",
          "name": "",
          "type": "bool"
        }
      ],
      "stateMutability": "view",
      "type": "function"
    },
    {
      "inputs": [
        {
          "internalType": "address",
          "name": "",
          "type": "address"
        }
      ],
      "name": "companyLoggedIn",
      "outputs": [
        {
          "internalType": "bool",
          "name": "",
          "type": "bool"
        }
      ],
      "stateMutability": "view",
      "type": "function"
    },
    {
      "inputs": [
        {
          "internalType": "uint256",
          "name": "_companyId",
          "type": "uint256"
        }
      ],
      "name": "endCompanyProcess",
      "outputs": [],
      "stateMutability": "nonpayable",
      "type": "function"
    },
    {
      "inputs": [
        {
          "internalType": "uint256",
          "name": "_companyId",
          "type": "uint256"
        }
      ],
      "name": "endRegistration",
      "outputs": [],
      "stateMutability": "nonpayable",
      "type": "function"
    },
    {
      "inputs": [
        {
          "internalType": "uint256",
          "name": "",
          "type": "uint256"
        }
      ],
      "name": "faculties",
      "outputs": [
        {
          "internalType": "string",
          "name": "name",
          "type": "string"
        },
        {
          "internalType": "address payable",
          "name": "faculty",
          "type": "address"
        },
        {
          "internalType": "string",
          "name": "password",
          "type": "string"
        },
        {
          "internalType": "string",
          "name": "branch",
          "type": "string"
        }
      ],
      "stateMutability": "view",
      "type": "function"
    },
    {
      "inputs": [
        {
          "internalType": "address",
          "name": "",
          "type": "address"
        }
      ],
      "name": "facultyAddress",
      "outputs": [
        {
          "internalType": "bool",
          "name": "",
          "type": "bool"
        }
      ],
      "stateMutability": "view",
      "type": "function"
    },
    {
      "inputs": [
        {
          "internalType": "uint256",
          "name": "_facultyId",
          "type": "uint256"
        }
      ],
      "name": "facultyExists",
      "outputs": [
        {
          "internalType": "bool",
          "name": "",
          "type": "bool"
        }
      ],
      "stateMutability": "view",
      "type": "function"
    },
    {
      "inputs": [
        {
          "internalType": "address",
          "name": "",
          "type": "address"
        }
      ],
      "name": "facultyLoggedIn",
      "outputs": [
        {
          "internalType": "bool",
          "name": "",
          "type": "bool"
        }
      ],
      "stateMutability": "view",
      "type": "function"
    },
    {
      "inputs": [
        {
          "internalType": "uint256",
          "name": "_companyId",
          "type": "uint256"
        }
      ],
      "name": "getCompanyStatus",
      "outputs": [
        {
          "internalType": "string",
          "name": "",
          "type": "string"
        }
      ],
      "stateMutability": "view",
      "type": "function"
    },
    {
      "inputs": [
        {
          "internalType": "string",
          "name": "_studentRollno",
          "type": "string"
        }
      ],
      "name": "getPPI",
      "outputs": [
        {
          "internalType": "string",
          "name": "",
          "type": "string"
        }
      ],
      "stateMutability": "view",
      "type": "function"
    },
    {
      "inputs": [
        {
          "internalType": "string",
          "name": "_studentRollno",
          "type": "string"
        }
      ],
      "name": "getSPI",
      "outputs": [
        {
          "internalType": "string",
          "name": "",
          "type": "string"
        }
      ],
      "stateMutability": "view",
      "type": "function"
    },
    {
      "inputs": [
        {
          "internalType": "uint256",
          "name": "_companyId",
          "type": "uint256"
        },
        {
          "internalType": "string",
          "name": "_studentRollno",
          "type": "string"
        }
      ],
      "name": "isEligible",
      "outputs": [
        {
          "internalType": "bool",
          "name": "",
          "type": "bool"
        }
      ],
      "stateMutability": "view",
      "type": "function"
    },
    {
      "inputs": [
        {
          "internalType": "uint256",
          "name": "_companyId",
          "type": "uint256"
        },
        {
          "internalType": "string",
          "name": "_password",
          "type": "string"
        }
      ],
      "name": "isValidCompany",
      "outputs": [
        {
          "internalType": "bool",
          "name": "",
          "type": "bool"
        }
      ],
      "stateMutability": "view",
      "type": "function"
    },
    {
      "inputs": [
        {
          "internalType": "uint256",
          "name": "_facultyId",
          "type": "uint256"
        },
        {
          "internalType": "string",
          "name": "_password",
          "type": "string"
        }
      ],
      "name": "isValidFaculty",
      "outputs": [
        {
          "internalType": "bool",
          "name": "",
          "type": "bool"
        }
      ],
      "stateMutability": "view",
      "type": "function"
    },
    {
      "inputs": [
        {
          "internalType": "string",
          "name": "_rollno",
          "type": "string"
        },
        {
          "internalType": "string",
          "name": "_password",
          "type": "string"
        }
      ],
      "name": "isValidStudent",
      "outputs": [
        {
          "internalType": "bool",
          "name": "",
          "type": "bool"
        }
      ],
      "stateMutability": "view",
      "type": "function"
    },
    {
      "inputs": [
        {
          "internalType": "uint256",
          "name": "_companyId",
          "type": "uint256"
        },
        {
          "internalType": "string",
          "name": "_password",
          "type": "string"
        }
      ],
      "name": "loginCompany",
      "outputs": [
        {
          "internalType": "bool",
          "name": "",
          "type": "bool"
        }
      ],
      "stateMutability": "nonpayable",
      "type": "function"
    },
    {
      "inputs": [
        {
          "internalType": "uint256",
          "name": "_facultyId",
          "type": "uint256"
        },
        {
          "internalType": "string",
          "name": "_password",
          "type": "string"
        }
      ],
      "name": "loginFaculty",
      "outputs": [
        {
          "internalType": "bool",
          "name": "",
          "type": "bool"
        }
      ],
      "stateMutability": "nonpayable",
      "type": "function"
    },
    {
      "inputs": [
        {
          "internalType": "string",
          "name": "_rollno",
          "type": "string"
        },
        {
          "internalType": "string",
          "name": "_password",
          "type": "string"
        }
      ],
      "name": "loginStudent",
      "outputs": [
        {
          "internalType": "bool",
          "name": "",
          "type": "bool"
        }
      ],
      "stateMutability": "nonpayable",
      "type": "function"
    },
    {
      "inputs": [
        {
          "internalType": "string",
          "name": "_name",
          "type": "string"
        },
        {
          "internalType": "string",
          "name": "_description",
          "type": "string"
        },
        {
          "internalType": "string",
          "name": "_password",
          "type": "string"
        },
        {
          "internalType": "uint256",
          "name": "_category",
          "type": "uint256"
        },
        {
          "internalType": "string",
          "name": "_ctc",
          "type": "string"
        },
        {
          "internalType": "string[]",
          "name": "_location",
          "type": "string[]"
        },
        {
          "internalType": "uint256",
          "name": "_minBackLogs",
          "type": "uint256"
        },
        {
          "internalType": "string",
          "name": "_minPPI",
          "type": "string"
        },
        {
          "internalType": "uint256",
          "name": "_minStudents",
          "type": "uint256"
        }
      ],
      "name": "registerCompany",
      "outputs": [],
      "stateMutability": "nonpayable",
      "type": "function"
    },
    {
      "inputs": [
        {
          "internalType": "string",
          "name": "_name",
          "type": "string"
        },
        {
          "internalType": "string",
          "name": "_branch",
          "type": "string"
        },
        {
          "internalType": "string",
          "name": "_password",
          "type": "string"
        }
      ],
      "name": "registerFaculty",
      "outputs": [],
      "stateMutability": "nonpayable",
      "type": "function"
    },
    {
      "inputs": [
        {
          "internalType": "string",
          "name": "_rollno",
          "type": "string"
        },
        {
          "internalType": "string",
          "name": "_name",
          "type": "string"
        },
        {
          "internalType": "string",
          "name": "_password",
          "type": "string"
        },
        {
          "internalType": "string[1]",
          "name": "_ppi",
          "type": "string[1]"
        },
        {
          "internalType": "string[1]",
          "name": "_spi",
          "type": "string[1]"
        },
        {
          "internalType": "string",
          "name": "_percentage12",
          "type": "string"
        },
        {
          "internalType": "uint256",
          "name": "_backLogs",
          "type": "uint256"
        }
      ],
      "name": "registerStudent",
      "outputs": [],
      "stateMutability": "nonpayable",
      "type": "function"
    },
    {
      "inputs": [
        {
          "internalType": "uint256",
          "name": "_companyId",
          "type": "uint256"
        }
      ],
      "name": "startRegistration",
      "outputs": [],
      "stateMutability": "nonpayable",
      "type": "function"
    },
    {
      "inputs": [
        {
          "internalType": "address",
          "name": "",
          "type": "address"
        }
      ],
      "name": "studentAddress",
      "outputs": [
        {
          "internalType": "bool",
          "name": "",
          "type": "bool"
        }
      ],
      "stateMutability": "view",
      "type": "function"
    },
    {
      "inputs": [
        {
          "internalType": "string",
          "name": "_rollno",
          "type": "string"
        }
      ],
      "name": "studentExists",
      "outputs": [
        {
          "internalType": "bool",
          "name": "",
          "type": "bool"
        }
      ],
      "stateMutability": "view",
      "type": "function"
    },
    {
      "inputs": [
        {
          "internalType": "address",
          "name": "",
          "type": "address"
        }
      ],
      "name": "studentLoggedIn",
      "outputs": [
        {
          "internalType": "bool",
          "name": "",
          "type": "bool"
        }
      ],
      "stateMutability": "view",
      "type": "function"
    },
    {
      "inputs": [
        {
          "internalType": "string",
          "name": "",
          "type": "string"
        }
      ],
      "name": "students",
      "outputs": [
        {
          "internalType": "string",
          "name": "rollno",
          "type": "string"
        },
        {
          "internalType": "address payable",
          "name": "student",
          "type": "address"
        },
        {
          "internalType": "string",
          "name": "name",
          "type": "string"
        },
        {
          "internalType": "string",
          "name": "password",
          "type": "string"
        },
        {
          "internalType": "string",
          "name": "percentage12",
          "type": "string"
        },
        {
          "internalType": "uint256",
          "name": "backLogs",
          "type": "uint256"
        },
        {
          "internalType": "string",
          "name": "resume",
          "type": "string"
        },
        {
          "internalType": "bool",
          "name": "isPlaced",
          "type": "bool"
        },
        {
          "internalType": "bool",
          "name": "isInProgress",
          "type": "bool"
        },
        {
          "internalType": "uint256",
          "name": "companyId",
          "type": "uint256"
        },
        {
          "internalType": "uint256",
          "name": "updateLeft",
          "type": "uint256"
        },
        {
          "internalType": "string",
          "name": "LORStatus",
          "type": "string"
        }
      ],
      "stateMutability": "view",
      "type": "function"
    },
    {
      "inputs": [],
      "name": "totalCompanies",
      "outputs": [
        {
          "internalType": "uint256",
          "name": "",
          "type": "uint256"
        }
      ],
      "stateMutability": "view",
      "type": "function"
    },
    {
      "inputs": [],
      "name": "totalFaculties",
      "outputs": [
        {
          "internalType": "uint256",
          "name": "",
          "type": "uint256"
        }
      ],
      "stateMutability": "view",
      "type": "function"
    },
    {
      "inputs": [],
      "name": "totalStudents",
      "outputs": [
        {
          "internalType": "uint256",
          "name": "",
          "type": "uint256"
        }
      ],
      "stateMutability": "view",
      "type": "function"
    }
  ],
  "bytecode": "0x608060405234801561001057600080fd5b506140a9806100206000396000f3fe608060405234801561001057600080fd5b50600436106101fb5760003560e01c80638524e4441161011a578063a39d01f8116100ad578063ca26e03a1161007c578063ca26e03a14610692578063e28406e7146106c5578063f33049af146106f5578063f8643b0b14610711578063f9892ee214610741576101fb565b8063a39d01f8146105db578063c2edfa50146105f7578063c6ddfefb14610627578063c7ef6bfb14610657576101fb565b806393f66ab9116100e957806393f66ab914610541578063943660201461055d57806397bbcb931461058d5780639852bf8e146105bd576101fb565b80638524e4441461049557806385741ba7146104b1578063890cfd3d146104e15780639079dbff14610511576101fb565b806338e36fb5116101925780634762d2fe116101615780634762d2fe146103fb57806353f274731461042b5780635c167d57146104495780636dd0804714610465576101fb565b806338e36fb51461034d5780633b4cc7a31461037d5780633dd3b3be1461039b57806340165592146103cb576101fb565b80632770a4f9116101ce5780632770a4f9146102ac5780632813d19d146102c85780632ed1f9b51461030157806336c756e41461031d576101fb565b80630635950f146102005780631b3ec26e1461021c5780631e750c171461024c57806325cfb44c1461027c575b600080fd5b61021a6004803603810190610215919061315b565b610771565b005b6102366004803603810190610231919061306d565b61091c565b60405161024391906137dc565b60405180910390f35b6102666004803603810190610261919061306d565b61093c565b60405161027391906137dc565b60405180910390f35b610296600480360381019061029191906134eb565b61095c565b6040516102a391906137dc565b60405180910390f35b6102c660048036038101906102c1919061334c565b610a8f565b005b6102e260048036038101906102dd91906134be565b610dc1565b6040516102f89a99989796959493929190613957565b60405180910390f35b61031b600480360381019061031691906134be565b611165565b005b610337600480360381019061033291906130e3565b6111c8565b60405161034491906137dc565b60405180910390f35b610367600480360381019061036291906134be565b611296565b60405161037491906137dc565b60405180910390f35b610385611353565b6040516103929190613b2d565b60405180910390f35b6103b560048036038101906103b091906134eb565b611359565b6040516103c291906137dc565b60405180910390f35b6103e560048036038101906103e091906134eb565b61141c565b6040516103f291906137dc565b60405180910390f35b6104156004803603810190610410919061306d565b61153d565b60405161042291906137dc565b60405180910390f35b61043361155d565b6040516104409190613b2d565b60405180910390f35b610463600480360381019061045e91906134be565b611563565b005b61047f600480360381019061047a919061306d565b6115c6565b60405161048c91906137dc565b60405180910390f35b6104af60048036038101906104aa9190613202565b6115e6565b005b6104cb60048036038101906104c6919061309a565b61194a565b6040516104d891906137f7565b60405180910390f35b6104fb60048036038101906104f691906130e3565b611a11565b60405161050891906137dc565b60405180910390f35b61052b600480360381019061052691906134eb565b611b44565b60405161053891906137dc565b60405180910390f35b61055b600480360381019061055691906134eb565b611c77565b005b610577600480360381019061057291906134be565b611df2565b60405161058491906137f7565b60405180910390f35b6105a760048036038101906105a2919061306d565b611e9a565b6040516105b491906137dc565b60405180910390f35b6105c5611eba565b6040516105d29190613b2d565b60405180910390f35b6105f560048036038101906105f091906134eb565b611ec0565b005b610611600480360381019061060c919061306d565b611ffc565b60405161061e91906137dc565b60405180910390f35b610641600480360381019061063c919061309a565b61201c565b60405161064e91906137dc565b60405180910390f35b610671600480360381019061066c919061309a565b6120e4565b6040516106899c9b9a99989796959493929190613873565b60405180910390f35b6106ac60048036038101906106a791906134be565b6124c4565b6040516106bc9493929190613819565b60405180910390f35b6106df60048036038101906106da919061309a565b6126ac565b6040516106ec91906137f7565b60405180910390f35b61070f600480360381019061070a91906134be565b612773565b005b61072b600480360381019061072691906134be565b6127d6565b60405161073891906137dc565b60405180910390f35b61075b600480360381019061075691906134eb565b612893565b60405161076891906137dc565b60405180910390f35b61077a33612956565b156107ba576040517f08c379a00000000000000000000000000000000000000000000000000000000081526004016107b190613aad565b60405180910390fd5b600260008154809291906107cd90613d55565b919050555060405180608001604052808481526020013373ffffffffffffffffffffffffffffffffffffffff16815260200182815260200183815250600460006002548152602001908152602001600020600082015181600001908051906020019061083a929190612cad565b5060208201518160010160006101000a81548173ffffffffffffffffffffffffffffffffffffffff021916908373ffffffffffffffffffffffffffffffffffffffff160217905550604082015181600201908051906020019061089e929190612cad565b5060608201518160030190805190602001906108bb929190612cad565b509050506001600760003373ffffffffffffffffffffffffffffffffffffffff1673ffffffffffffffffffffffffffffffffffffffff16815260200190815260200160002060006101000a81548160ff021916908315150217905550505050565b600a6020528060005260406000206000915054906101000a900460ff1681565b60096020528060005260406000206000915054906101000a900460ff1681565b600061096783611296565b6109a6576040517f08c379a000000000000000000000000000000000000000000000000000000000815260040161099d90613b0d565b60405180910390fd5b6109b08383612893565b6109ef576040517f08c379a00000000000000000000000000000000000000000000000000000000081526004016109e690613a8d565b60405180910390fd5b610a2d6040518060400160405280601181526020017f5375636365737366756c206c6f67696e21000000000000000000000000000000815250612a5d565b6001600a60003373ffffffffffffffffffffffffffffffffffffffff1673ffffffffffffffffffffffffffffffffffffffff16815260200190815260200160002060006101000a81548160ff0219169083151502179055506001905092915050565b610a9833612956565b15610ad8576040517f08c379a0000000000000000000000000000000000000000000000000000000008152600401610acf90613aad565b60405180910390fd5b60016000815480929190610aeb90613d55565b91905055506060604051806101a001604052808b81526020013373ffffffffffffffffffffffffffffffffffffffff1681526020018981526020018a81526020018881526020018781526020018681526020018281526020018281526020018581526020018481526020018381526020016040518060400160405280600681526020017f636c6f73656400000000000000000000000000000000000000000000000000008152508152506005600060015481526020019081526020016000206000820151816000019080519060200190610bc6929190612cad565b5060208201518160010160006101000a81548173ffffffffffffffffffffffffffffffffffffffff021916908373ffffffffffffffffffffffffffffffffffffffff1602179055506040820151816002019080519060200190610c2a929190612cad565b506060820151816003019080519060200190610c47929190612cad565b506080820151816004015560a0820151816005019080519060200190610c6e929190612cad565b5060c0820151816006019080519060200190610c8b929190612d33565b5060e0820151816007019080519060200190610ca8929190612d33565b50610100820151816008019080519060200190610cc6929190612d33565b50610120820151816009015561014082015181600a019080519060200190610cef929190612cad565b5061016082015181600b015561018082015181600c019080519060200190610d18929190612cad565b509050506001600860003373ffffffffffffffffffffffffffffffffffffffff1673ffffffffffffffffffffffffffffffffffffffff16815260200190815260200160002060006101000a81548160ff021916908315150217905550610db56040518060400160405280600c81526020017f436f6d706e61792049643a200000000000000000000000000000000000000000815250600154612af6565b50505050505050505050565b6005602052806000526040600020600091509050806000018054610de490613cf2565b80601f0160208091040260200160405190810160405280929190818152602001828054610e1090613cf2565b8015610e5d5780601f10610e3257610100808354040283529160200191610e5d565b820191906000526020600020905b815481529060010190602001808311610e4057829003601f168201915b5050505050908060010160009054906101000a900473ffffffffffffffffffffffffffffffffffffffff1690806002018054610e9890613cf2565b80601f0160208091040260200160405190810160405280929190818152602001828054610ec490613cf2565b8015610f115780601f10610ee657610100808354040283529160200191610f11565b820191906000526020600020905b815481529060010190602001808311610ef457829003601f168201915b505050505090806003018054610f2690613cf2565b80601f0160208091040260200160405190810160405280929190818152602001828054610f5290613cf2565b8015610f9f5780601f10610f7457610100808354040283529160200191610f9f565b820191906000526020600020905b815481529060010190602001808311610f8257829003601f168201915b505050505090806004015490806005018054610fba90613cf2565b80601f0160208091040260200160405190810160405280929190818152602001828054610fe690613cf2565b80156110335780601f1061100857610100808354040283529160200191611033565b820191906000526020600020905b81548152906001019060200180831161101657829003601f168201915b50505050509080600901549080600a01805461104e90613cf2565b80601f016020809104026020016040519081016040528092919081815260200182805461107a90613cf2565b80156110c75780601f1061109c576101008083540402835291602001916110c7565b820191906000526020600020905b8154815290600101906020018083116110aa57829003601f168201915b50505050509080600b01549080600c0180546110e290613cf2565b80601f016020809104026020016040519081016040528092919081815260200182805461110e90613cf2565b801561115b5780601f106111305761010080835404028352916020019161115b565b820191906000526020600020905b81548152906001019060200180831161113e57829003601f168201915b505050505090508a565b6040518060400160405280601381526020017f6f70656e466f72526567697374726174696f6e0000000000000000000000000081525060056000838152602001908152602001600020600c0190805190602001906111c4929190612cad565b5050565b600061127d6003846040516111dd9190613778565b908152602001604051809103902060030180546111f990613cf2565b80601f016020809104026020016040519081016040528092919081815260200182805461122590613cf2565b80156112725780601f1061124757610100808354040283529160200191611272565b820191906000526020600020905b81548152906001019060200180831161125557829003601f168201915b505050505083612b92565b1561128b5760019050611290565b600090505b92915050565b60003373ffffffffffffffffffffffffffffffffffffffff166004600084815260200190815260200160002060010160009054906101000a900473ffffffffffffffffffffffffffffffffffffffff1673ffffffffffffffffffffffffffffffffffffffff16141561130b576001905061134e565b6113496040518060400160405280601681526020017f466163756c7479206e6f74207265676973746572656400000000000000000000815250612a5d565b600090505b919050565b60015481565b600061140360056000858152602001908152602001600020600201805461137f90613cf2565b80601f01602080910402602001604051908101604052809291908181526020018280546113ab90613cf2565b80156113f85780601f106113cd576101008083540402835291602001916113f8565b820191906000526020600020905b8154815290600101906020018083116113db57829003601f168201915b505050505083612b92565b156114115760019050611416565b600090505b92915050565b6000600115156003836040516114329190613778565b908152602001604051809103902060090160009054906101000a900460ff1615151415611532576005600060038460405161146d9190613778565b9081526020016040518091039020600a01548152602001908152602001600020600401546005600085815260200190815260200160002060040154116114b65760009050611537565b60006003836040516114c89190613778565b9081526020016040518091039020600b015410156114e95760009050611537565b60056000848152602001908152602001600020600901546003836040516115109190613778565b90815260200160405180910390206007015411156115315760009050611537565b5b600190505b92915050565b600b6020528060005260406000206000915054906101000a900460ff1681565b60025481565b6040518060400160405280600a81526020017f696e50726f67726573730000000000000000000000000000000000000000000081525060056000838152602001908152602001600020600c0190805190602001906115c2929190612cad565b5050565b60086020528060005260406000206000915054906101000a900460ff1681565b6000808154809291906115f890613d55565b9190505550604051806101c001604052808881526020013373ffffffffffffffffffffffffffffffffffffffff16815260200187815260200186815260200185815260200184815260200183815260200182815260200160405180602001604052806000815250815260200160001515815260200160001515815260200160008152602001600281526020016040518060400160405280600a81526020017f6e6f744170706c696564000000000000000000000000000000000000000000008152508152506003886040516116cd9190613778565b908152602001604051809103902060008201518160000190805190602001906116f7929190612cad565b5060208201518160010160006101000a81548173ffffffffffffffffffffffffffffffffffffffff021916908373ffffffffffffffffffffffffffffffffffffffff160217905550604082015181600201908051906020019061175b929190612cad565b506060820151816003019080519060200190611778929190612cad565b50608082015181600401906001611790929190612d93565b5060a0820151816005019060016117a8929190612d93565b5060c08201518160060190805190602001906117c5929190612cad565b5060e082015181600701556101008201518160080190805190602001906117ed929190612cad565b506101208201518160090160006101000a81548160ff0219169083151502179055506101408201518160090160016101000a81548160ff02191690831515021790555061016082015181600a015561018082015181600b01556101a082015181600c019080519060200190611863929190612cad565b509050506001600660003373ffffffffffffffffffffffffffffffffffffffff1673ffffffffffffffffffffffffffffffffffffffff16815260200190815260200160002060006101000a81548160ff0219169083151502179055506119006040518060400160405280600f81526020017f53747564656e7420636f756e743a200000000000000000000000000000000000815250600054612af6565b6119416040518060400160405280600d81526020017f53747564656e74207070693a2000000000000000000000000000000000000000815250600054612af6565b50505050505050565b606060038260405161195c9190613778565b90815260200160405180910390206005016000600181106119805761197f613e06565b5b01805461198c90613cf2565b80601f01602080910402602001604051908101604052809291908181526020018280546119b890613cf2565b8015611a055780601f106119da57610100808354040283529160200191611a05565b820191906000526020600020905b8154815290600101906020018083116119e857829003601f168201915b50505050509050919050565b6000611a1c8361201c565b611a5b576040517f08c379a0000000000000000000000000000000000000000000000000000000008152600401611a5290613a4d565b60405180910390fd5b611a6583836111c8565b611aa4576040517f08c379a0000000000000000000000000000000000000000000000000000000008152600401611a9b90613a8d565b60405180910390fd5b611ae26040518060400160405280601181526020017f5375636365737366756c206c6f67696e21000000000000000000000000000000815250612a5d565b6001600960003373ffffffffffffffffffffffffffffffffffffffff1673ffffffffffffffffffffffffffffffffffffffff16815260200190815260200160002060006101000a81548160ff0219169083151502179055506001905092915050565b6000611b4f836127d6565b611b8e576040517f08c379a0000000000000000000000000000000000000000000000000000000008152600401611b8590613acd565b60405180910390fd5b611b988383611359565b611bd7576040517f08c379a0000000000000000000000000000000000000000000000000000000008152600401611bce90613a8d565b60405180910390fd5b611c156040518060400160405280601181526020017f5375636365737366756c206c6f67696e21000000000000000000000000000000815250612a5d565b6001600b60003373ffffffffffffffffffffffffffffffffffffffff1673ffffffffffffffffffffffffffffffffffffffff16815260200190815260200160002060006101000a81548160ff0219169083151502179055506001905092915050565b60006040518060400160405280601381526020017f6f70656e466f72526567697374726174696f6e00000000000000000000000000815250905080604051602001611cc29190613778565b6040516020818303038152906040528051906020012060056000858152602001908152602001600020600c01604051602001611cfe919061378f565b6040516020818303038152906040528051906020012014611d54576040517f08c379a0000000000000000000000000000000000000000000000000000000008152600401611d4b90613aed565b60405180910390fd5b611d5e838361141c565b611d9d576040517f08c379a0000000000000000000000000000000000000000000000000000000008152600401611d9490613a6d565b60405180910390fd5b6005600084815260200190815260200160002060080182908060018154018082558091505060019003906000526020600020016000909190919091509080519060200190611dec929190612cad565b50505050565b606060056000838152602001908152602001600020600c018054611e1590613cf2565b80601f0160208091040260200160405190810160405280929190818152602001828054611e4190613cf2565b8015611e8e5780601f10611e6357610100808354040283529160200191611e8e565b820191906000526020600020905b815481529060010190602001808311611e7157829003601f168201915b50505050509050919050565b60076020528060005260406000206000915054906101000a900460ff1681565b60005481565b6005600083815260200190815260200160002060070181908060018154018082558091505060019003906000526020600020016000909190919091509080519060200190611f0f929190612cad565b50600060405180602001604052806000815250905080604051602001611f359190613778565b60405160208183030381529060405280519060200120600383604051611f5b9190613778565b9081526020016040518091039020600a0154604051602001611f7d91906137a6565b604051602081830303815290604052805190602001201415611fd157600382604051611fa99190613778565b9081526020016040518091039020600b016000815480929190611fcb90613cc8565b91905055505b82600383604051611fe29190613778565b9081526020016040518091039020600a0181905550505050565b60066020528060005260406000206000915054906101000a900460ff1681565b60003373ffffffffffffffffffffffffffffffffffffffff166003836040516120459190613778565b908152602001604051809103902060010160009054906101000a900473ffffffffffffffffffffffffffffffffffffffff1673ffffffffffffffffffffffffffffffffffffffff16141561209c57600190506120df565b6120da6040518060400160405280601681526020017f53747564656e74206e6f74207265676973746572656400000000000000000000815250612a5d565b600090505b919050565b60038180516020810182018051848252602083016020850120818352809550505050505060009150905080600001805461211d90613cf2565b80601f016020809104026020016040519081016040528092919081815260200182805461214990613cf2565b80156121965780601f1061216b57610100808354040283529160200191612196565b820191906000526020600020905b81548152906001019060200180831161217957829003601f168201915b5050505050908060010160009054906101000a900473ffffffffffffffffffffffffffffffffffffffff16908060020180546121d190613cf2565b80601f01602080910402602001604051908101604052809291908181526020018280546121fd90613cf2565b801561224a5780601f1061221f5761010080835404028352916020019161224a565b820191906000526020600020905b81548152906001019060200180831161222d57829003601f168201915b50505050509080600301805461225f90613cf2565b80601f016020809104026020016040519081016040528092919081815260200182805461228b90613cf2565b80156122d85780601f106122ad576101008083540402835291602001916122d8565b820191906000526020600020905b8154815290600101906020018083116122bb57829003601f168201915b5050505050908060060180546122ed90613cf2565b80601f016020809104026020016040519081016040528092919081815260200182805461231990613cf2565b80156123665780601f1061233b57610100808354040283529160200191612366565b820191906000526020600020905b81548152906001019060200180831161234957829003601f168201915b50505050509080600701549080600801805461238190613cf2565b80601f01602080910402602001604051908101604052809291908181526020018280546123ad90613cf2565b80156123fa5780601f106123cf576101008083540402835291602001916123fa565b820191906000526020600020905b8154815290600101906020018083116123dd57829003601f168201915b5050505050908060090160009054906101000a900460ff16908060090160019054906101000a900460ff169080600a01549080600b01549080600c01805461244190613cf2565b80601f016020809104026020016040519081016040528092919081815260200182805461246d90613cf2565b80156124ba5780601f1061248f576101008083540402835291602001916124ba565b820191906000526020600020905b81548152906001019060200180831161249d57829003601f168201915b505050505090508c565b60046020528060005260406000206000915090508060000180546124e790613cf2565b80601f016020809104026020016040519081016040528092919081815260200182805461251390613cf2565b80156125605780601f1061253557610100808354040283529160200191612560565b820191906000526020600020905b81548152906001019060200180831161254357829003601f168201915b5050505050908060010160009054906101000a900473ffffffffffffffffffffffffffffffffffffffff169080600201805461259b90613cf2565b80601f01602080910402602001604051908101604052809291908181526020018280546125c790613cf2565b80156126145780601f106125e957610100808354040283529160200191612614565b820191906000526020600020905b8154815290600101906020018083116125f757829003601f168201915b50505050509080600301805461262990613cf2565b80601f016020809104026020016040519081016040528092919081815260200182805461265590613cf2565b80156126a25780601f10612677576101008083540402835291602001916126a2565b820191906000526020600020905b81548152906001019060200180831161268557829003601f168201915b5050505050905084565b60606003826040516126be9190613778565b90815260200160405180910390206004016000600181106126e2576126e1613e06565b5b0180546126ee90613cf2565b80601f016020809104026020016040519081016040528092919081815260200182805461271a90613cf2565b80156127675780601f1061273c57610100808354040283529160200191612767565b820191906000526020600020905b81548152906001019060200180831161274a57829003601f168201915b50505050509050919050565b6040518060400160405280600681526020017f636c6f736564000000000000000000000000000000000000000000000000000081525060056000838152602001908152602001600020600c0190805190602001906127d2929190612cad565b5050565b60003373ffffffffffffffffffffffffffffffffffffffff166005600084815260200190815260200160002060010160009054906101000a900473ffffffffffffffffffffffffffffffffffffffff1673ffffffffffffffffffffffffffffffffffffffff16141561284b576001905061288e565b6128896040518060400160405280601681526020017f436f6d70616e79206e6f74207265676973746572656400000000000000000000815250612a5d565b600090505b919050565b600061293d6004600085815260200190815260200160002060020180546128b990613cf2565b80601f01602080910402602001604051908101604052809291908181526020018280546128e590613cf2565b80156129325780601f1061290757610100808354040283529160200191612932565b820191906000526020600020905b81548152906001019060200180831161291557829003601f168201915b505050505083612b92565b1561294b5760019050612950565b600090505b92915050565b600061296182612beb565b600660008373ffffffffffffffffffffffffffffffffffffffff1673ffffffffffffffffffffffffffffffffffffffff16815260200190815260200160002060009054906101000a900460ff1680612a025750600760008373ffffffffffffffffffffffffffffffffffffffff1673ffffffffffffffffffffffffffffffffffffffff16815260200190815260200160002060009054906101000a900460ff165b80612a565750600860008373ffffffffffffffffffffffffffffffffffffffff1673ffffffffffffffffffffffffffffffffffffffff16815260200190815260200160002060009054906101000a900460ff165b9050919050565b612af381604051602401612a7191906137f7565b6040516020818303038152906040527f41304fac000000000000000000000000000000000000000000000000000000007bffffffffffffffffffffffffffffffffffffffffffffffffffffffff19166020820180517bffffffffffffffffffffffffffffffffffffffffffffffffffffffff8381831617835250505050612c84565b50565b612b8e8282604051602401612b0c929190613a1d565b6040516020818303038152906040527fb60e72cc000000000000000000000000000000000000000000000000000000007bffffffffffffffffffffffffffffffffffffffffffffffffffffffff19166020820180517bffffffffffffffffffffffffffffffffffffffffffffffffffffffff8381831617835250505050612c84565b5050565b600081604051602001612ba59190613778565b6040516020818303038152906040528051906020012083604051602001612bcc9190613778565b6040516020818303038152906040528051906020012014905092915050565b612c8181604051602401612bff91906137c1565b6040516020818303038152906040527f2c2ecbc2000000000000000000000000000000000000000000000000000000007bffffffffffffffffffffffffffffffffffffffffffffffffffffffff19166020820180517bffffffffffffffffffffffffffffffffffffffffffffffffffffffff8381831617835250505050612c84565b50565b60008151905060006a636f6e736f6c652e6c6f679050602083016000808483855afa5050505050565b828054612cb990613cf2565b90600052602060002090601f016020900481019282612cdb5760008555612d22565b82601f10612cf457805160ff1916838001178555612d22565b82800160010185558215612d22579182015b82811115612d21578251825591602001919060010190612d06565b5b509050612d2f9190612de6565b5090565b828054828255906000526020600020908101928215612d82579160200282015b82811115612d81578251829080519060200190612d71929190612cad565b5091602001919060010190612d53565b5b509050612d8f9190612e03565b5090565b8260018101928215612dd5579160200282015b82811115612dd4578251829080519060200190612dc4929190612cad565b5091602001919060010190612da6565b5b509050612de29190612e03565b5090565b5b80821115612dff576000816000905550600101612de7565b5090565b5b80821115612e235760008181612e1a9190612e27565b50600101612e04565b5090565b508054612e3390613cf2565b6000825580601f10612e455750612e64565b601f016020900490600052602060002090810190612e639190612de6565b5b50565b6000612e7a612e7584613b6d565b613b48565b90508082856020860282011115612e9457612e93613e69565b5b60005b85811015612ee257813567ffffffffffffffff811115612eba57612eb9613e64565b5b808601612ec7898261302a565b85526020850194506020840193505050600181019050612e97565b5050509392505050565b6000612eff612efa84613b93565b613b48565b90508083825260208201905082856020860282011115612f2257612f21613e69565b5b60005b85811015612f7057813567ffffffffffffffff811115612f4857612f47613e64565b5b808601612f55898261302a565b85526020850194506020840193505050600181019050612f25565b5050509392505050565b6000612f8d612f8884613bbf565b613b48565b905082815260208101848484011115612fa957612fa8613e6e565b5b612fb4848285613c86565b509392505050565b600081359050612fcb81614045565b92915050565b600082601f830112612fe657612fe5613e64565b5b6001612ff3848285612e67565b91505092915050565b600082601f83011261301157613010613e64565b5b8135613021848260208601612eec565b91505092915050565b600082601f83011261303f5761303e613e64565b5b813561304f848260208601612f7a565b91505092915050565b6000813590506130678161405c565b92915050565b60006020828403121561308357613082613e78565b5b600061309184828501612fbc565b91505092915050565b6000602082840312156130b0576130af613e78565b5b600082013567ffffffffffffffff8111156130ce576130cd613e73565b5b6130da8482850161302a565b91505092915050565b600080604083850312156130fa576130f9613e78565b5b600083013567ffffffffffffffff81111561311857613117613e73565b5b6131248582860161302a565b925050602083013567ffffffffffffffff81111561314557613144613e73565b5b6131518582860161302a565b9150509250929050565b60008060006060848603121561317457613173613e78565b5b600084013567ffffffffffffffff81111561319257613191613e73565b5b61319e8682870161302a565b935050602084013567ffffffffffffffff8111156131bf576131be613e73565b5b6131cb8682870161302a565b925050604084013567ffffffffffffffff8111156131ec576131eb613e73565b5b6131f88682870161302a565b9150509250925092565b600080600080600080600060e0888a03121561322157613220613e78565b5b600088013567ffffffffffffffff81111561323f5761323e613e73565b5b61324b8a828b0161302a565b975050602088013567ffffffffffffffff81111561326c5761326b613e73565b5b6132788a828b0161302a565b965050604088013567ffffffffffffffff81111561329957613298613e73565b5b6132a58a828b0161302a565b955050606088013567ffffffffffffffff8111156132c6576132c5613e73565b5b6132d28a828b01612fd1565b945050608088013567ffffffffffffffff8111156132f3576132f2613e73565b5b6132ff8a828b01612fd1565b93505060a088013567ffffffffffffffff8111156133205761331f613e73565b5b61332c8a828b0161302a565b92505060c061333d8a828b01613058565b91505092959891949750929550565b60008060008060008060008060006101208a8c03121561336f5761336e613e78565b5b60008a013567ffffffffffffffff81111561338d5761338c613e73565b5b6133998c828d0161302a565b99505060208a013567ffffffffffffffff8111156133ba576133b9613e73565b5b6133c68c828d0161302a565b98505060408a013567ffffffffffffffff8111156133e7576133e6613e73565b5b6133f38c828d0161302a565b97505060606134048c828d01613058565b96505060808a013567ffffffffffffffff81111561342557613424613e73565b5b6134318c828d0161302a565b95505060a08a013567ffffffffffffffff81111561345257613451613e73565b5b61345e8c828d01612ffc565b94505060c061346f8c828d01613058565b93505060e08a013567ffffffffffffffff8111156134905761348f613e73565b5b61349c8c828d0161302a565b9250506101006134ae8c828d01613058565b9150509295985092959850929598565b6000602082840312156134d4576134d3613e78565b5b60006134e284828501613058565b91505092915050565b6000806040838503121561350257613501613e78565b5b600061351085828601613058565b925050602083013567ffffffffffffffff81111561353157613530613e73565b5b61353d8582860161302a565b9150509250929050565b61355081613c3e565b82525050565b61355f81613c2c565b82525050565b61356e81613c50565b82525050565b600061357f82613c05565b6135898185613c10565b9350613599818560208601613c95565b6135a281613e7d565b840191505092915050565b60006135b882613c05565b6135c28185613c21565b93506135d2818560208601613c95565b80840191505092915050565b600081546135eb81613cf2565b6135f58186613c21565b94506001821660008114613610576001811461362157613654565b60ff19831686528186019350613654565b61362a85613bf0565b60005b8381101561364c5781548189015260018201915060208101905061362d565b838801955050505b50505092915050565b600061366a602e83613c10565b915061367582613e8e565b604082019050919050565b600061368d603783613c10565b915061369882613edd565b604082019050919050565b60006136b0601983613c10565b91506136bb82613f2c565b602082019050919050565b60006136d3602083613c10565b91506136de82613f55565b602082019050919050565b60006136f6602e83613c10565b915061370182613f7e565b604082019050919050565b6000613719601c83613c10565b915061372482613fcd565b602082019050919050565b600061373c602e83613c10565b915061374782613ff6565b604082019050919050565b61375b81613c7c565b82525050565b61377261376d82613c7c565b613d9e565b82525050565b600061378482846135ad565b915081905092915050565b600061379b82846135de565b915081905092915050565b60006137b28284613761565b60208201915081905092915050565b60006020820190506137d66000830184613556565b92915050565b60006020820190506137f16000830184613565565b92915050565b600060208201905081810360008301526138118184613574565b905092915050565b600060808201905081810360008301526138338187613574565b90506138426020830186613547565b81810360408301526138548185613574565b905081810360608301526138688184613574565b905095945050505050565b600061018082019050818103600083015261388e818f613574565b905061389d602083018e613547565b81810360408301526138af818d613574565b905081810360608301526138c3818c613574565b905081810360808301526138d7818b613574565b90506138e660a083018a613752565b81810360c08301526138f88189613574565b905061390760e0830188613565565b613915610100830187613565565b613923610120830186613752565b613931610140830185613752565b8181036101608301526139448184613574565b90509d9c50505050505050505050505050565b6000610140820190508181036000830152613972818d613574565b9050613981602083018c613547565b8181036040830152613993818b613574565b905081810360608301526139a7818a613574565b90506139b66080830189613752565b81810360a08301526139c88188613574565b90506139d760c0830187613752565b81810360e08301526139e98186613574565b90506139f9610100830185613752565b818103610120830152613a0c8184613574565b90509b9a5050505050505050505050565b60006040820190508181036000830152613a378185613574565b9050613a466020830184613752565b9392505050565b60006020820190508181036000830152613a668161365d565b9050919050565b60006020820190508181036000830152613a8681613680565b9050919050565b60006020820190508181036000830152613aa6816136a3565b9050919050565b60006020820190508181036000830152613ac6816136c6565b9050919050565b60006020820190508181036000830152613ae6816136e9565b9050919050565b60006020820190508181036000830152613b068161370c565b9050919050565b60006020820190508181036000830152613b268161372f565b9050919050565b6000602082019050613b426000830184613752565b92915050565b6000613b52613b63565b9050613b5e8282613d24565b919050565b6000604051905090565b600067ffffffffffffffff821115613b8857613b87613e35565b5b602082029050919050565b600067ffffffffffffffff821115613bae57613bad613e35565b5b602082029050602081019050919050565b600067ffffffffffffffff821115613bda57613bd9613e35565b5b613be382613e7d565b9050602081019050919050565b60008190508160005260206000209050919050565b600081519050919050565b600082825260208201905092915050565b600081905092915050565b6000613c3782613c5c565b9050919050565b6000613c4982613c5c565b9050919050565b60008115159050919050565b600073ffffffffffffffffffffffffffffffffffffffff82169050919050565b6000819050919050565b82818337600083830152505050565b60005b83811015613cb3578082015181840152602081019050613c98565b83811115613cc2576000848401525b50505050565b6000613cd382613c7c565b91506000821415613ce757613ce6613da8565b5b600182039050919050565b60006002820490506001821680613d0a57607f821691505b60208210811415613d1e57613d1d613dd7565b5b50919050565b613d2d82613e7d565b810181811067ffffffffffffffff82111715613d4c57613d4b613e35565b5b80604052505050565b6000613d6082613c7c565b91507fffffffffffffffffffffffffffffffffffffffffffffffffffffffffffffffff821415613d9357613d92613da8565b5b600182019050919050565b6000819050919050565b7f4e487b7100000000000000000000000000000000000000000000000000000000600052601160045260246000fd5b7f4e487b7100000000000000000000000000000000000000000000000000000000600052602260045260246000fd5b7f4e487b7100000000000000000000000000000000000000000000000000000000600052603260045260246000fd5b7f4e487b7100000000000000000000000000000000000000000000000000000000600052604160045260246000fd5b600080fd5b600080fd5b600080fd5b600080fd5b600080fd5b6000601f19601f8301169050919050565b7f5f5f5f53747564656e74206e6f7420726567697374657265642077697468207460008201527f686973206163636f756e745f5f5f000000000000000000000000000000000000602082015250565b7f5f5f5f596f7520617265206e6f7420656c696769626c6520746f206170706c7960008201527f20666f72207468697320636f6d61706e79203a285f5f5f000000000000000000602082015250565b7f5f5f5f496e76616c69642063726564656e7469616c735f5f5f00000000000000600082015250565b7f5f5f5f506c656173652075736520616e6f7468657220616464726573735f5f5f600082015250565b7f5f5f5f436f6d70616e79206e6f7420726567697374657265642077697468207460008201527f686973206163636f756e745f5f5f000000000000000000000000000000000000602082015250565b7f4e6f74204f70656e20666f7220526567697374726174696f6e203a2800000000600082015250565b7f5f5f5f466163756c7479206e6f7420726567697374657265642077697468207460008201527f686973206163636f756e745f5f5f000000000000000000000000000000000000602082015250565b61404e81613c2c565b811461405957600080fd5b50565b61406581613c7c565b811461407057600080fd5b5056fea26469706673582212207b7f2b44ae1eaa5a3e2885126fc413dab2b86fd0107e3783c7c6c3e7ceda465364736f6c63430008070033",
  "linkReferences": {},
  "deployedLinkReferences": {}
}