{
  "_format": "hh-sol-artifact-1",
  "contractName": "Placement",
  "sourceName": "src/backend/contract/Placement.sol",
  "abi": [
    {
      "inputs": [
        {
          "internalType": "uint256",
          "name": "_companyId",
          "type": "uint256"
        },
        {
          "internalType": "string",
          "name": "_studentRollno",
          "type": "string"
        }
      ],
      "name": "addSelected",
      "outputs": [],
      "stateMutability": "nonpayable",
      "type": "function"
    },
    {
      "inputs": [
        {
          "internalType": "uint256",
          "name": "_companyId",
          "type": "uint256"
        },
        {
          "internalType": "string",
          "name": "_studentRollno",
          "type": "string"
        }
      ],
      "name": "applyForCompany",
      "outputs": [],
      "stateMutability": "nonpayable",
      "type": "function"
    },
    {
      "inputs": [
        {
          "internalType": "uint256",
          "name": "",
          "type": "uint256"
        }
      ],
      "name": "companies",
      "outputs": [
        {
          "internalType": "string",
          "name": "name",
          "type": "string"
        },
        {
          "internalType": "address payable",
          "name": "company",
          "type": "address"
        },
        {
          "internalType": "string",
          "name": "password",
          "type": "string"
        },
        {
          "internalType": "string",
          "name": "description",
          "type": "string"
        },
        {
          "internalType": "uint256",
          "name": "category",
          "type": "uint256"
        },
        {
          "internalType": "string",
          "name": "ctc",
          "type": "string"
        },
        {
          "internalType": "uint256",
          "name": "minBackLogs",
          "type": "uint256"
        },
        {
          "internalType": "string",
          "name": "minPPI",
          "type": "string"
        },
        {
          "internalType": "uint256",
          "name": "minStudents",
          "type": "uint256"
        },
        {
          "internalType": "string",
          "name": "status",
          "type": "string"
        }
      ],
      "stateMutability": "view",
      "type": "function"
    },
    {
      "inputs": [
        {
          "internalType": "address",
          "name": "",
          "type": "address"
        }
      ],
      "name": "companyAddress",
      "outputs": [
        {
          "internalType": "bool",
          "name": "",
          "type": "bool"
        }
      ],
      "stateMutability": "view",
      "type": "function"
    },
    {
      "inputs": [
        {
          "internalType": "uint256",
          "name": "_companyId",
          "type": "uint256"
        }
      ],
      "name": "companyExists",
      "outputs": [
        {
          "internalType": "bool",
          "name": "",
          "type": "bool"
        }
      ],
      "stateMutability": "view",
      "type": "function"
    },
    {
      "inputs": [
        {
          "internalType": "address",
          "name": "",
          "type": "address"
        }
      ],
      "name": "companyLoggedIn",
      "outputs": [
        {
          "internalType": "bool",
          "name": "",
          "type": "bool"
        }
      ],
      "stateMutability": "view",
      "type": "function"
    },
    {
      "inputs": [
        {
          "internalType": "uint256",
          "name": "_companyId",
          "type": "uint256"
        }
      ],
      "name": "endCompanyProcess",
      "outputs": [],
      "stateMutability": "nonpayable",
      "type": "function"
    },
    {
      "inputs": [
        {
          "internalType": "uint256",
          "name": "_companyId",
          "type": "uint256"
        }
      ],
      "name": "endRegistration",
      "outputs": [],
      "stateMutability": "nonpayable",
      "type": "function"
    },
    {
      "inputs": [
        {
          "internalType": "uint256",
          "name": "",
          "type": "uint256"
        }
      ],
      "name": "faculties",
      "outputs": [
        {
          "internalType": "string",
          "name": "name",
          "type": "string"
        },
        {
          "internalType": "address payable",
          "name": "faculty",
          "type": "address"
        },
        {
          "internalType": "string",
          "name": "password",
          "type": "string"
        },
        {
          "internalType": "string",
          "name": "branch",
          "type": "string"
        }
      ],
      "stateMutability": "view",
      "type": "function"
    },
    {
      "inputs": [
        {
          "internalType": "address",
          "name": "",
          "type": "address"
        }
      ],
      "name": "facultyAddress",
      "outputs": [
        {
          "internalType": "bool",
          "name": "",
          "type": "bool"
        }
      ],
      "stateMutability": "view",
      "type": "function"
    },
    {
      "inputs": [
        {
          "internalType": "uint256",
          "name": "_facultyId",
          "type": "uint256"
        }
      ],
      "name": "facultyExists",
      "outputs": [
        {
          "internalType": "bool",
          "name": "",
          "type": "bool"
        }
      ],
      "stateMutability": "view",
      "type": "function"
    },
    {
      "inputs": [
        {
          "internalType": "address",
          "name": "",
          "type": "address"
        }
      ],
      "name": "facultyLoggedIn",
      "outputs": [
        {
          "internalType": "bool",
          "name": "",
          "type": "bool"
        }
      ],
      "stateMutability": "view",
      "type": "function"
    },
    {
      "inputs": [
        {
          "internalType": "uint256",
          "name": "_companyId",
          "type": "uint256"
        }
      ],
      "name": "getCompanyStatus",
      "outputs": [
        {
          "internalType": "string",
          "name": "",
          "type": "string"
        }
      ],
      "stateMutability": "view",
      "type": "function"
    },
    {
      "inputs": [
        {
          "internalType": "string",
          "name": "_studentRollno",
          "type": "string"
        }
      ],
      "name": "getPPI",
      "outputs": [
        {
          "internalType": "string",
          "name": "",
          "type": "string"
        }
      ],
      "stateMutability": "view",
      "type": "function"
    },
    {
      "inputs": [
        {
          "internalType": "string",
          "name": "_studentRollno",
          "type": "string"
        }
      ],
      "name": "getSPI",
      "outputs": [
        {
          "internalType": "string",
          "name": "",
          "type": "string"
        }
      ],
      "stateMutability": "view",
      "type": "function"
    },
    {
      "inputs": [
        {
          "internalType": "uint256",
          "name": "_companyId",
          "type": "uint256"
        },
        {
          "internalType": "string",
          "name": "_studentRollno",
          "type": "string"
        }
      ],
      "name": "isEligible",
      "outputs": [
        {
          "internalType": "bool",
          "name": "",
          "type": "bool"
        }
      ],
      "stateMutability": "view",
      "type": "function"
    },
    {
      "inputs": [
        {
          "internalType": "uint256",
          "name": "_companyId",
          "type": "uint256"
        },
        {
          "internalType": "string",
          "name": "_password",
          "type": "string"
        }
      ],
      "name": "isValidCompany",
      "outputs": [
        {
          "internalType": "bool",
          "name": "",
          "type": "bool"
        }
      ],
      "stateMutability": "view",
      "type": "function"
    },
    {
      "inputs": [
        {
          "internalType": "uint256",
          "name": "_facultyId",
          "type": "uint256"
        },
        {
          "internalType": "string",
          "name": "_password",
          "type": "string"
        }
      ],
      "name": "isValidFaculty",
      "outputs": [
        {
          "internalType": "bool",
          "name": "",
          "type": "bool"
        }
      ],
      "stateMutability": "view",
      "type": "function"
    },
    {
      "inputs": [
        {
          "internalType": "string",
          "name": "_rollno",
          "type": "string"
        },
        {
          "internalType": "string",
          "name": "_password",
          "type": "string"
        }
      ],
      "name": "isValidStudent",
      "outputs": [
        {
          "internalType": "bool",
          "name": "",
          "type": "bool"
        }
      ],
      "stateMutability": "view",
      "type": "function"
    },
    {
      "inputs": [
        {
          "internalType": "uint256",
          "name": "_companyId",
          "type": "uint256"
        },
        {
          "internalType": "string",
          "name": "_password",
          "type": "string"
        }
      ],
      "name": "loginCompany",
      "outputs": [
        {
          "internalType": "bool",
          "name": "",
          "type": "bool"
        }
      ],
      "stateMutability": "nonpayable",
      "type": "function"
    },
    {
      "inputs": [
        {
          "internalType": "uint256",
          "name": "_facultyId",
          "type": "uint256"
        },
        {
          "internalType": "string",
          "name": "_password",
          "type": "string"
        }
      ],
      "name": "loginFaculty",
      "outputs": [
        {
          "internalType": "bool",
          "name": "",
          "type": "bool"
        }
      ],
      "stateMutability": "nonpayable",
      "type": "function"
    },
    {
      "inputs": [
        {
          "internalType": "string",
          "name": "_rollno",
          "type": "string"
        },
        {
          "internalType": "string",
          "name": "_password",
          "type": "string"
        }
      ],
      "name": "loginStudent",
      "outputs": [
        {
          "internalType": "bool",
          "name": "",
          "type": "bool"
        }
      ],
      "stateMutability": "nonpayable",
      "type": "function"
    },
    {
      "inputs": [
        {
          "internalType": "string",
          "name": "_name",
          "type": "string"
        },
        {
          "internalType": "string",
          "name": "_description",
          "type": "string"
        },
        {
          "internalType": "string",
          "name": "_password",
          "type": "string"
        },
        {
          "internalType": "uint256",
          "name": "_category",
          "type": "uint256"
        },
        {
          "internalType": "string",
          "name": "_ctc",
          "type": "string"
        },
        {
          "internalType": "string[]",
          "name": "_location",
          "type": "string[]"
        },
        {
          "internalType": "uint256",
          "name": "_minBackLogs",
          "type": "uint256"
        },
        {
          "internalType": "string",
          "name": "_minPPI",
          "type": "string"
        },
        {
          "internalType": "uint256",
          "name": "_minStudents",
          "type": "uint256"
        }
      ],
      "name": "registerCompany",
      "outputs": [],
      "stateMutability": "nonpayable",
      "type": "function"
    },
    {
      "inputs": [
        {
          "internalType": "string",
          "name": "_name",
          "type": "string"
        },
        {
          "internalType": "string",
          "name": "_branch",
          "type": "string"
        },
        {
          "internalType": "string",
          "name": "_password",
          "type": "string"
        }
      ],
      "name": "registerFaculty",
      "outputs": [],
      "stateMutability": "nonpayable",
      "type": "function"
    },
    {
      "inputs": [
        {
          "internalType": "string",
          "name": "_rollno",
          "type": "string"
        },
        {
          "internalType": "string",
          "name": "_name",
          "type": "string"
        },
        {
          "internalType": "string",
          "name": "_password",
          "type": "string"
        },
        {
          "internalType": "string[1]",
          "name": "_ppi",
          "type": "string[1]"
        },
        {
          "internalType": "string[1]",
          "name": "_spi",
          "type": "string[1]"
        },
        {
          "internalType": "string",
          "name": "_percentage12",
          "type": "string"
        },
        {
          "internalType": "uint256",
          "name": "_backLogs",
          "type": "uint256"
        }
      ],
      "name": "registerStudent",
      "outputs": [],
      "stateMutability": "nonpayable",
      "type": "function"
    },
    {
      "inputs": [
        {
          "internalType": "uint256",
          "name": "_companyId",
          "type": "uint256"
        }
      ],
      "name": "startRegistration",
      "outputs": [],
      "stateMutability": "nonpayable",
      "type": "function"
    },
    {
      "inputs": [
        {
          "internalType": "address",
          "name": "",
          "type": "address"
        }
      ],
      "name": "studentAddress",
      "outputs": [
        {
          "internalType": "bool",
          "name": "",
          "type": "bool"
        }
      ],
      "stateMutability": "view",
      "type": "function"
    },
    {
      "inputs": [
        {
          "internalType": "string",
          "name": "_rollno",
          "type": "string"
        }
      ],
      "name": "studentExists",
      "outputs": [
        {
          "internalType": "bool",
          "name": "",
          "type": "bool"
        }
      ],
      "stateMutability": "view",
      "type": "function"
    },
    {
      "inputs": [
        {
          "internalType": "address",
          "name": "",
          "type": "address"
        }
      ],
      "name": "studentLoggedIn",
      "outputs": [
        {
          "internalType": "bool",
          "name": "",
          "type": "bool"
        }
      ],
      "stateMutability": "view",
      "type": "function"
    },
    {
      "inputs": [
        {
          "internalType": "string",
          "name": "",
          "type": "string"
        }
      ],
      "name": "students",
      "outputs": [
        {
          "internalType": "string",
          "name": "rollno",
          "type": "string"
        },
        {
          "internalType": "address payable",
          "name": "student",
          "type": "address"
        },
        {
          "internalType": "string",
          "name": "name",
          "type": "string"
        },
        {
          "internalType": "string",
          "name": "password",
          "type": "string"
        },
        {
          "internalType": "string",
          "name": "percentage12",
          "type": "string"
        },
        {
          "internalType": "uint256",
          "name": "backLogs",
          "type": "uint256"
        },
        {
          "internalType": "string",
          "name": "resume",
          "type": "string"
        },
        {
          "internalType": "bool",
          "name": "isPlaced",
          "type": "bool"
        },
        {
          "internalType": "bool",
          "name": "isInProgress",
          "type": "bool"
        },
        {
          "internalType": "uint256",
          "name": "companyId",
          "type": "uint256"
        },
        {
          "internalType": "uint256",
          "name": "updateLeft",
          "type": "uint256"
        },
        {
          "internalType": "string",
          "name": "LORStatus",
          "type": "string"
        }
      ],
      "stateMutability": "view",
      "type": "function"
    },
    {
      "inputs": [],
      "name": "totalCompanies",
      "outputs": [
        {
          "internalType": "uint256",
          "name": "",
          "type": "uint256"
        }
      ],
      "stateMutability": "view",
      "type": "function"
    },
    {
      "inputs": [],
      "name": "totalFaculties",
      "outputs": [
        {
          "internalType": "uint256",
          "name": "",
          "type": "uint256"
        }
      ],
      "stateMutability": "view",
      "type": "function"
    },
    {
      "inputs": [],
      "name": "totalStudents",
      "outputs": [
        {
          "internalType": "uint256",
          "name": "",
          "type": "uint256"
        }
      ],
      "stateMutability": "view",
      "type": "function"
    }
  ],
  "bytecode": "0x608060405234801561001057600080fd5b50614232806100206000396000f3fe608060405234801561001057600080fd5b50600436106101fb5760003560e01c80638524e4441161011a578063a39d01f8116100ad578063ca26e03a1161007c578063ca26e03a14610692578063e28406e7146106c5578063f33049af146106f5578063f8643b0b14610711578063f9892ee214610741576101fb565b8063a39d01f8146105db578063c2edfa50146105f7578063c6ddfefb14610627578063c7ef6bfb14610657576101fb565b806393f66ab9116100e957806393f66ab914610541578063943660201461055d57806397bbcb931461058d5780639852bf8e146105bd576101fb565b80638524e4441461049557806385741ba7146104b1578063890cfd3d146104e15780639079dbff14610511576101fb565b806338e36fb5116101925780634762d2fe116101615780634762d2fe146103fb57806353f274731461042b5780635c167d57146104495780636dd0804714610465576101fb565b806338e36fb51461034d5780633b4cc7a31461037d5780633dd3b3be1461039b57806340165592146103cb576101fb565b80632770a4f9116101ce5780632770a4f9146102ac5780632813d19d146102c85780632ed1f9b51461030157806336c756e41461031d576101fb565b80630635950f146102005780631b3ec26e1461021c5780631e750c171461024c57806325cfb44c1461027c575b600080fd5b61021a6004803603810190610215919061320c565b610771565b005b6102366004803603810190610231919061311e565b6108c4565b60405161024391906138d3565b60405180910390f35b6102666004803603810190610261919061311e565b6108e4565b60405161027391906138d3565b60405180910390f35b6102966004803603810190610291919061359c565b610904565b6040516102a391906138d3565b60405180910390f35b6102c660048036038101906102c191906133fd565b610a37565b005b6102e260048036038101906102dd919061356f565b610d69565b6040516102f89a99989796959493929190613a4e565b60405180910390f35b61031b6004803603810190610316919061356f565b61110d565b005b61033760048036038101906103329190613194565b611170565b60405161034491906138d3565b60405180910390f35b6103676004803603810190610362919061356f565b61123e565b60405161037491906138d3565b60405180910390f35b6103856112fb565b6040516103929190613c64565b60405180910390f35b6103b560048036038101906103b0919061359c565b611301565b6040516103c291906138d3565b60405180910390f35b6103e560048036038101906103e0919061359c565b6113c4565b6040516103f291906138d3565b60405180910390f35b6104156004803603810190610410919061311e565b6114e5565b60405161042291906138d3565b60405180910390f35b610433611505565b6040516104409190613c64565b60405180910390f35b610463600480360381019061045e919061356f565b61150b565b005b61047f600480360381019061047a919061311e565b61156e565b60405161048c91906138d3565b60405180910390f35b6104af60048036038101906104aa91906132b3565b61158e565b005b6104cb60048036038101906104c6919061314b565b6119fb565b6040516104d891906138ee565b60405180910390f35b6104fb60048036038101906104f69190613194565b611ac2565b60405161050891906138d3565b60405180910390f35b61052b6004803603810190610526919061359c565b611bf5565b60405161053891906138d3565b60405180910390f35b61055b6004803603810190610556919061359c565b611d28565b005b6105776004803603810190610572919061356f565b611ea3565b60405161058491906138ee565b60405180910390f35b6105a760048036038101906105a2919061311e565b611f4b565b6040516105b491906138d3565b60405180910390f35b6105c5611f6b565b6040516105d29190613c64565b60405180910390f35b6105f560048036038101906105f0919061359c565b611f71565b005b610611600480360381019061060c919061311e565b6120ad565b60405161061e91906138d3565b60405180910390f35b610641600480360381019061063c919061314b565b6120cd565b60405161064e91906138d3565b60405180910390f35b610671600480360381019061066c919061314b565b612195565b6040516106899c9b9a9998979695949392919061396a565b60405180910390f35b6106ac60048036038101906106a7919061356f565b612575565b6040516106bc9493929190613910565b60405180910390f35b6106df60048036038101906106da919061314b565b61275d565b6040516106ec91906138ee565b60405180910390f35b61070f600480360381019061070a919061356f565b612824565b005b61072b6004803603810190610726919061356f565b612887565b60405161073891906138d3565b60405180910390f35b61075b6004803603810190610756919061359c565b612944565b60405161076891906138d3565b60405180910390f35b61077a33612a07565b156107ba576040517f08c379a00000000000000000000000000000000000000000000000000000000081526004016107b190613ba4565b60405180910390fd5b600260008154809291906107cd90613e8c565b919050555060405180608001604052808481526020013373ffffffffffffffffffffffffffffffffffffffff16815260200182815260200183815250600460006002548152602001908152602001600020600082015181600001908051906020019061083a929190612d5e565b5060208201518160010160006101000a81548173ffffffffffffffffffffffffffffffffffffffff021916908373ffffffffffffffffffffffffffffffffffffffff160217905550604082015181600201908051906020019061089e929190612d5e565b5060608201518160030190805190602001906108bb929190612d5e565b50905050505050565b600a6020528060005260406000206000915054906101000a900460ff1681565b60096020528060005260406000206000915054906101000a900460ff1681565b600061090f8361123e565b61094e576040517f08c379a000000000000000000000000000000000000000000000000000000000815260040161094590613b64565b60405180910390fd5b6109588383612944565b610997576040517f08c379a000000000000000000000000000000000000000000000000000000000815260040161098e90613c44565b60405180910390fd5b6109d56040518060400160405280601181526020017f5375636365737366756c206c6f67696e21000000000000000000000000000000815250612b0e565b6001600a60003373ffffffffffffffffffffffffffffffffffffffff1673ffffffffffffffffffffffffffffffffffffffff16815260200190815260200160002060006101000a81548160ff0219169083151502179055506001905092915050565b610a4033612a07565b15610a80576040517f08c379a0000000000000000000000000000000000000000000000000000000008152600401610a7790613ba4565b60405180910390fd5b60016000815480929190610a9390613e8c565b91905055506060604051806101a001604052808b81526020013373ffffffffffffffffffffffffffffffffffffffff1681526020018981526020018a81526020018881526020018781526020018681526020018281526020018281526020018581526020018481526020018381526020016040518060400160405280600681526020017f636c6f73656400000000000000000000000000000000000000000000000000008152508152506005600060015481526020019081526020016000206000820151816000019080519060200190610b6e929190612d5e565b5060208201518160010160006101000a81548173ffffffffffffffffffffffffffffffffffffffff021916908373ffffffffffffffffffffffffffffffffffffffff1602179055506040820151816002019080519060200190610bd2929190612d5e565b506060820151816003019080519060200190610bef929190612d5e565b506080820151816004015560a0820151816005019080519060200190610c16929190612d5e565b5060c0820151816006019080519060200190610c33929190612de4565b5060e0820151816007019080519060200190610c50929190612de4565b50610100820151816008019080519060200190610c6e929190612de4565b50610120820151816009015561014082015181600a019080519060200190610c97929190612d5e565b5061016082015181600b015561018082015181600c019080519060200190610cc0929190612d5e565b509050506001600860003373ffffffffffffffffffffffffffffffffffffffff1673ffffffffffffffffffffffffffffffffffffffff16815260200190815260200160002060006101000a81548160ff021916908315150217905550610d5d6040518060400160405280600c81526020017f436f6d706e61792049643a200000000000000000000000000000000000000000815250600154612ba7565b50505050505050505050565b6005602052806000526040600020600091509050806000018054610d8c90613e29565b80601f0160208091040260200160405190810160405280929190818152602001828054610db890613e29565b8015610e055780601f10610dda57610100808354040283529160200191610e05565b820191906000526020600020905b815481529060010190602001808311610de857829003601f168201915b5050505050908060010160009054906101000a900473ffffffffffffffffffffffffffffffffffffffff1690806002018054610e4090613e29565b80601f0160208091040260200160405190810160405280929190818152602001828054610e6c90613e29565b8015610eb95780601f10610e8e57610100808354040283529160200191610eb9565b820191906000526020600020905b815481529060010190602001808311610e9c57829003601f168201915b505050505090806003018054610ece90613e29565b80601f0160208091040260200160405190810160405280929190818152602001828054610efa90613e29565b8015610f475780601f10610f1c57610100808354040283529160200191610f47565b820191906000526020600020905b815481529060010190602001808311610f2a57829003601f168201915b505050505090806004015490806005018054610f6290613e29565b80601f0160208091040260200160405190810160405280929190818152602001828054610f8e90613e29565b8015610fdb5780601f10610fb057610100808354040283529160200191610fdb565b820191906000526020600020905b815481529060010190602001808311610fbe57829003601f168201915b50505050509080600901549080600a018054610ff690613e29565b80601f016020809104026020016040519081016040528092919081815260200182805461102290613e29565b801561106f5780601f106110445761010080835404028352916020019161106f565b820191906000526020600020905b81548152906001019060200180831161105257829003601f168201915b50505050509080600b01549080600c01805461108a90613e29565b80601f01602080910402602001604051908101604052809291908181526020018280546110b690613e29565b80156111035780601f106110d857610100808354040283529160200191611103565b820191906000526020600020905b8154815290600101906020018083116110e657829003601f168201915b505050505090508a565b6040518060400160405280601381526020017f6f70656e466f72526567697374726174696f6e0000000000000000000000000081525060056000838152602001908152602001600020600c01908051906020019061116c929190612d5e565b5050565b6000611225600384604051611185919061386f565b908152602001604051809103902060030180546111a190613e29565b80601f01602080910402602001604051908101604052809291908181526020018280546111cd90613e29565b801561121a5780601f106111ef5761010080835404028352916020019161121a565b820191906000526020600020905b8154815290600101906020018083116111fd57829003601f168201915b505050505083612c43565b156112335760019050611238565b600090505b92915050565b60003373ffffffffffffffffffffffffffffffffffffffff166004600084815260200190815260200160002060010160009054906101000a900473ffffffffffffffffffffffffffffffffffffffff1673ffffffffffffffffffffffffffffffffffffffff1614156112b357600190506112f6565b6112f16040518060400160405280601681526020017f466163756c7479206e6f74207265676973746572656400000000000000000000815250612b0e565b600090505b919050565b60015481565b60006113ab60056000858152602001908152602001600020600201805461132790613e29565b80601f016020809104026020016040519081016040528092919081815260200182805461135390613e29565b80156113a05780601f10611375576101008083540402835291602001916113a0565b820191906000526020600020905b81548152906001019060200180831161138357829003601f168201915b505050505083612c43565b156113b957600190506113be565b600090505b92915050565b6000600115156003836040516113da919061386f565b908152602001604051809103902060090160009054906101000a900460ff16151514156114da5760056000600384604051611415919061386f565b9081526020016040518091039020600a015481526020019081526020016000206004015460056000858152602001908152602001600020600401541161145e57600090506114df565b6000600383604051611470919061386f565b9081526020016040518091039020600b0154101561149157600090506114df565b60056000848152602001908152602001600020600901546003836040516114b8919061386f565b90815260200160405180910390206007015411156114d957600090506114df565b5b600190505b92915050565b600b6020528060005260406000206000915054906101000a900460ff1681565b60025481565b6040518060400160405280600a81526020017f696e50726f67726573730000000000000000000000000000000000000000000081525060056000838152602001908152602001600020600c01908051906020019061156a929190612d5e565b5050565b60086020528060005260406000206000915054906101000a900460ff1681565b61159733612a07565b156115d7576040517f08c379a00000000000000000000000000000000000000000000000000000000081526004016115ce90613ba4565b60405180910390fd5b6116996003886040516115ea919061386f565b9081526020016040518091039020600001805461160690613e29565b80601f016020809104026020016040519081016040528092919081815260200182805461163290613e29565b801561167f5780601f106116545761010080835404028352916020019161167f565b820191906000526020600020905b81548152906001019060200180831161166257829003601f168201915b505050505060405180602001604052806000815250612c43565b6116d8576040517f08c379a00000000000000000000000000000000000000000000000000000000081526004016116cf90613c24565b60405180910390fd5b6000808154809291906116ea90613e8c565b9190505550604051806101c001604052808881526020013373ffffffffffffffffffffffffffffffffffffffff16815260200187815260200186815260200185815260200184815260200183815260200182815260200160405180602001604052806000815250815260200160001515815260200160001515815260200160008152602001600281526020016040518060400160405280600a81526020017f6e6f744170706c696564000000000000000000000000000000000000000000008152508152506003886040516117bf919061386f565b908152602001604051809103902060008201518160000190805190602001906117e9929190612d5e565b5060208201518160010160006101000a81548173ffffffffffffffffffffffffffffffffffffffff021916908373ffffffffffffffffffffffffffffffffffffffff160217905550604082015181600201908051906020019061184d929190612d5e565b50606082015181600301908051906020019061186a929190612d5e565b50608082015181600401906001611882929190612e44565b5060a08201518160050190600161189a929190612e44565b5060c08201518160060190805190602001906118b7929190612d5e565b5060e082015181600701556101008201518160080190805190602001906118df929190612d5e565b506101208201518160090160006101000a81548160ff0219169083151502179055506101408201518160090160016101000a81548160ff02191690831515021790555061016082015181600a015561018082015181600b01556101a082015181600c019080519060200190611955929190612d5e565b509050506001600660003373ffffffffffffffffffffffffffffffffffffffff1673ffffffffffffffffffffffffffffffffffffffff16815260200190815260200160002060006101000a81548160ff0219169083151502179055506119f26040518060400160405280600f81526020017f53747564656e7420636f756e743a200000000000000000000000000000000000815250600054612ba7565b50505050505050565b6060600382604051611a0d919061386f565b9081526020016040518091039020600501600060018110611a3157611a30613f3d565b5b018054611a3d90613e29565b80601f0160208091040260200160405190810160405280929190818152602001828054611a6990613e29565b8015611ab65780601f10611a8b57610100808354040283529160200191611ab6565b820191906000526020600020905b815481529060010190602001808311611a9957829003601f168201915b50505050509050919050565b6000611acd836120cd565b611b0c576040517f08c379a0000000000000000000000000000000000000000000000000000000008152600401611b0390613b44565b60405180910390fd5b611b168383611170565b611b55576040517f08c379a0000000000000000000000000000000000000000000000000000000008152600401611b4c90613b84565b60405180910390fd5b611b936040518060400160405280601181526020017f5375636365737366756c206c6f67696e21000000000000000000000000000000815250612b0e565b6001600960003373ffffffffffffffffffffffffffffffffffffffff1673ffffffffffffffffffffffffffffffffffffffff16815260200190815260200160002060006101000a81548160ff0219169083151502179055506001905092915050565b6000611c0083612887565b611c3f576040517f08c379a0000000000000000000000000000000000000000000000000000000008152600401611c3690613c04565b60405180910390fd5b611c498383611301565b611c88576040517f08c379a0000000000000000000000000000000000000000000000000000000008152600401611c7f90613c44565b60405180910390fd5b611cc66040518060400160405280601181526020017f5375636365737366756c206c6f67696e21000000000000000000000000000000815250612b0e565b6001600b60003373ffffffffffffffffffffffffffffffffffffffff1673ffffffffffffffffffffffffffffffffffffffff16815260200190815260200160002060006101000a81548160ff0219169083151502179055506001905092915050565b60006040518060400160405280601381526020017f6f70656e466f72526567697374726174696f6e00000000000000000000000000815250905080604051602001611d73919061386f565b6040516020818303038152906040528051906020012060056000858152602001908152602001600020600c01604051602001611daf9190613886565b6040516020818303038152906040528051906020012014611e05576040517f08c379a0000000000000000000000000000000000000000000000000000000008152600401611dfc90613be4565b60405180910390fd5b611e0f83836113c4565b611e4e576040517f08c379a0000000000000000000000000000000000000000000000000000000008152600401611e4590613bc4565b60405180910390fd5b6005600084815260200190815260200160002060080182908060018154018082558091505060019003906000526020600020016000909190919091509080519060200190611e9d929190612d5e565b50505050565b606060056000838152602001908152602001600020600c018054611ec690613e29565b80601f0160208091040260200160405190810160405280929190818152602001828054611ef290613e29565b8015611f3f5780601f10611f1457610100808354040283529160200191611f3f565b820191906000526020600020905b815481529060010190602001808311611f2257829003601f168201915b50505050509050919050565b60076020528060005260406000206000915054906101000a900460ff1681565b60005481565b6005600083815260200190815260200160002060070181908060018154018082558091505060019003906000526020600020016000909190919091509080519060200190611fc0929190612d5e565b50600060405180602001604052806000815250905080604051602001611fe6919061386f565b6040516020818303038152906040528051906020012060038360405161200c919061386f565b9081526020016040518091039020600a015460405160200161202e919061389d565b6040516020818303038152906040528051906020012014156120825760038260405161205a919061386f565b9081526020016040518091039020600b01600081548092919061207c90613dff565b91905055505b82600383604051612093919061386f565b9081526020016040518091039020600a0181905550505050565b60066020528060005260406000206000915054906101000a900460ff1681565b60003373ffffffffffffffffffffffffffffffffffffffff166003836040516120f6919061386f565b908152602001604051809103902060010160009054906101000a900473ffffffffffffffffffffffffffffffffffffffff1673ffffffffffffffffffffffffffffffffffffffff16141561214d5760019050612190565b61218b6040518060400160405280601681526020017f53747564656e74206e6f74207265676973746572656400000000000000000000815250612b0e565b600090505b919050565b6003818051602081018201805184825260208301602085012081835280955050505050506000915090508060000180546121ce90613e29565b80601f01602080910402602001604051908101604052809291908181526020018280546121fa90613e29565b80156122475780601f1061221c57610100808354040283529160200191612247565b820191906000526020600020905b81548152906001019060200180831161222a57829003601f168201915b5050505050908060010160009054906101000a900473ffffffffffffffffffffffffffffffffffffffff169080600201805461228290613e29565b80601f01602080910402602001604051908101604052809291908181526020018280546122ae90613e29565b80156122fb5780601f106122d0576101008083540402835291602001916122fb565b820191906000526020600020905b8154815290600101906020018083116122de57829003601f168201915b50505050509080600301805461231090613e29565b80601f016020809104026020016040519081016040528092919081815260200182805461233c90613e29565b80156123895780601f1061235e57610100808354040283529160200191612389565b820191906000526020600020905b81548152906001019060200180831161236c57829003601f168201915b50505050509080600601805461239e90613e29565b80601f01602080910402602001604051908101604052809291908181526020018280546123ca90613e29565b80156124175780601f106123ec57610100808354040283529160200191612417565b820191906000526020600020905b8154815290600101906020018083116123fa57829003601f168201915b50505050509080600701549080600801805461243290613e29565b80601f016020809104026020016040519081016040528092919081815260200182805461245e90613e29565b80156124ab5780601f10612480576101008083540402835291602001916124ab565b820191906000526020600020905b81548152906001019060200180831161248e57829003601f168201915b5050505050908060090160009054906101000a900460ff16908060090160019054906101000a900460ff169080600a01549080600b01549080600c0180546124f290613e29565b80601f016020809104026020016040519081016040528092919081815260200182805461251e90613e29565b801561256b5780601f106125405761010080835404028352916020019161256b565b820191906000526020600020905b81548152906001019060200180831161254e57829003601f168201915b505050505090508c565b600460205280600052604060002060009150905080600001805461259890613e29565b80601f01602080910402602001604051908101604052809291908181526020018280546125c490613e29565b80156126115780601f106125e657610100808354040283529160200191612611565b820191906000526020600020905b8154815290600101906020018083116125f457829003601f168201915b5050505050908060010160009054906101000a900473ffffffffffffffffffffffffffffffffffffffff169080600201805461264c90613e29565b80601f016020809104026020016040519081016040528092919081815260200182805461267890613e29565b80156126c55780601f1061269a576101008083540402835291602001916126c5565b820191906000526020600020905b8154815290600101906020018083116126a857829003601f168201915b5050505050908060030180546126da90613e29565b80601f016020809104026020016040519081016040528092919081815260200182805461270690613e29565b80156127535780601f1061272857610100808354040283529160200191612753565b820191906000526020600020905b81548152906001019060200180831161273657829003601f168201915b5050505050905084565b606060038260405161276f919061386f565b908152602001604051809103902060040160006001811061279357612792613f3d565b5b01805461279f90613e29565b80601f01602080910402602001604051908101604052809291908181526020018280546127cb90613e29565b80156128185780601f106127ed57610100808354040283529160200191612818565b820191906000526020600020905b8154815290600101906020018083116127fb57829003601f168201915b50505050509050919050565b6040518060400160405280600681526020017f636c6f736564000000000000000000000000000000000000000000000000000081525060056000838152602001908152602001600020600c019080519060200190612883929190612d5e565b5050565b60003373ffffffffffffffffffffffffffffffffffffffff166005600084815260200190815260200160002060010160009054906101000a900473ffffffffffffffffffffffffffffffffffffffff1673ffffffffffffffffffffffffffffffffffffffff1614156128fc576001905061293f565b61293a6040518060400160405280601681526020017f436f6d70616e79206e6f74207265676973746572656400000000000000000000815250612b0e565b600090505b919050565b60006129ee60046000858152602001908152602001600020600201805461296a90613e29565b80601f016020809104026020016040519081016040528092919081815260200182805461299690613e29565b80156129e35780601f106129b8576101008083540402835291602001916129e3565b820191906000526020600020905b8154815290600101906020018083116129c657829003601f168201915b505050505083612c43565b156129fc5760019050612a01565b600090505b92915050565b6000612a1282612c9c565b600660008373ffffffffffffffffffffffffffffffffffffffff1673ffffffffffffffffffffffffffffffffffffffff16815260200190815260200160002060009054906101000a900460ff1680612ab35750600760008373ffffffffffffffffffffffffffffffffffffffff1673ffffffffffffffffffffffffffffffffffffffff16815260200190815260200160002060009054906101000a900460ff165b80612b075750600860008373ffffffffffffffffffffffffffffffffffffffff1673ffffffffffffffffffffffffffffffffffffffff16815260200190815260200160002060009054906101000a900460ff165b9050919050565b612ba481604051602401612b2291906138ee565b6040516020818303038152906040527f41304fac000000000000000000000000000000000000000000000000000000007bffffffffffffffffffffffffffffffffffffffffffffffffffffffff19166020820180517bffffffffffffffffffffffffffffffffffffffffffffffffffffffff8381831617835250505050612d35565b50565b612c3f8282604051602401612bbd929190613b14565b6040516020818303038152906040527fb60e72cc000000000000000000000000000000000000000000000000000000007bffffffffffffffffffffffffffffffffffffffffffffffffffffffff19166020820180517bffffffffffffffffffffffffffffffffffffffffffffffffffffffff8381831617835250505050612d35565b5050565b600081604051602001612c56919061386f565b6040516020818303038152906040528051906020012083604051602001612c7d919061386f565b6040516020818303038152906040528051906020012014905092915050565b612d3281604051602401612cb091906138b8565b6040516020818303038152906040527f2c2ecbc2000000000000000000000000000000000000000000000000000000007bffffffffffffffffffffffffffffffffffffffffffffffffffffffff19166020820180517bffffffffffffffffffffffffffffffffffffffffffffffffffffffff8381831617835250505050612d35565b50565b60008151905060006a636f6e736f6c652e6c6f679050602083016000808483855afa5050505050565b828054612d6a90613e29565b90600052602060002090601f016020900481019282612d8c5760008555612dd3565b82601f10612da557805160ff1916838001178555612dd3565b82800160010185558215612dd3579182015b82811115612dd2578251825591602001919060010190612db7565b5b509050612de09190612e97565b5090565b828054828255906000526020600020908101928215612e33579160200282015b82811115612e32578251829080519060200190612e22929190612d5e565b5091602001919060010190612e04565b5b509050612e409190612eb4565b5090565b8260018101928215612e86579160200282015b82811115612e85578251829080519060200190612e75929190612d5e565b5091602001919060010190612e57565b5b509050612e939190612eb4565b5090565b5b80821115612eb0576000816000905550600101612e98565b5090565b5b80821115612ed45760008181612ecb9190612ed8565b50600101612eb5565b5090565b508054612ee490613e29565b6000825580601f10612ef65750612f15565b601f016020900490600052602060002090810190612f149190612e97565b5b50565b6000612f2b612f2684613ca4565b613c7f565b90508082856020860282011115612f4557612f44613fa0565b5b60005b85811015612f9357813567ffffffffffffffff811115612f6b57612f6a613f9b565b5b808601612f7889826130db565b85526020850194506020840193505050600181019050612f48565b5050509392505050565b6000612fb0612fab84613cca565b613c7f565b90508083825260208201905082856020860282011115612fd357612fd2613fa0565b5b60005b8581101561302157813567ffffffffffffffff811115612ff957612ff8613f9b565b5b80860161300689826130db565b85526020850194506020840193505050600181019050612fd6565b5050509392505050565b600061303e61303984613cf6565b613c7f565b90508281526020810184848401111561305a57613059613fa5565b5b613065848285613dbd565b509392505050565b60008135905061307c816141ce565b92915050565b600082601f83011261309757613096613f9b565b5b60016130a4848285612f18565b91505092915050565b600082601f8301126130c2576130c1613f9b565b5b81356130d2848260208601612f9d565b91505092915050565b600082601f8301126130f0576130ef613f9b565b5b813561310084826020860161302b565b91505092915050565b600081359050613118816141e5565b92915050565b60006020828403121561313457613133613faf565b5b60006131428482850161306d565b91505092915050565b60006020828403121561316157613160613faf565b5b600082013567ffffffffffffffff81111561317f5761317e613faa565b5b61318b848285016130db565b91505092915050565b600080604083850312156131ab576131aa613faf565b5b600083013567ffffffffffffffff8111156131c9576131c8613faa565b5b6131d5858286016130db565b925050602083013567ffffffffffffffff8111156131f6576131f5613faa565b5b613202858286016130db565b9150509250929050565b60008060006060848603121561322557613224613faf565b5b600084013567ffffffffffffffff81111561324357613242613faa565b5b61324f868287016130db565b935050602084013567ffffffffffffffff8111156132705761326f613faa565b5b61327c868287016130db565b925050604084013567ffffffffffffffff81111561329d5761329c613faa565b5b6132a9868287016130db565b9150509250925092565b600080600080600080600060e0888a0312156132d2576132d1613faf565b5b600088013567ffffffffffffffff8111156132f0576132ef613faa565b5b6132fc8a828b016130db565b975050602088013567ffffffffffffffff81111561331d5761331c613faa565b5b6133298a828b016130db565b965050604088013567ffffffffffffffff81111561334a57613349613faa565b5b6133568a828b016130db565b955050606088013567ffffffffffffffff81111561337757613376613faa565b5b6133838a828b01613082565b945050608088013567ffffffffffffffff8111156133a4576133a3613faa565b5b6133b08a828b01613082565b93505060a088013567ffffffffffffffff8111156133d1576133d0613faa565b5b6133dd8a828b016130db565b92505060c06133ee8a828b01613109565b91505092959891949750929550565b60008060008060008060008060006101208a8c0312156134205761341f613faf565b5b60008a013567ffffffffffffffff81111561343e5761343d613faa565b5b61344a8c828d016130db565b99505060208a013567ffffffffffffffff81111561346b5761346a613faa565b5b6134778c828d016130db565b98505060408a013567ffffffffffffffff81111561349857613497613faa565b5b6134a48c828d016130db565b97505060606134b58c828d01613109565b96505060808a013567ffffffffffffffff8111156134d6576134d5613faa565b5b6134e28c828d016130db565b95505060a08a013567ffffffffffffffff81111561350357613502613faa565b5b61350f8c828d016130ad565b94505060c06135208c828d01613109565b93505060e08a013567ffffffffffffffff81111561354157613540613faa565b5b61354d8c828d016130db565b92505061010061355f8c828d01613109565b9150509295985092959850929598565b60006020828403121561358557613584613faf565b5b600061359384828501613109565b91505092915050565b600080604083850312156135b3576135b2613faf565b5b60006135c185828601613109565b925050602083013567ffffffffffffffff8111156135e2576135e1613faa565b5b6135ee858286016130db565b9150509250929050565b61360181613d75565b82525050565b61361081613d63565b82525050565b61361f81613d87565b82525050565b600061363082613d3c565b61363a8185613d47565b935061364a818560208601613dcc565b61365381613fb4565b840191505092915050565b600061366982613d3c565b6136738185613d58565b9350613683818560208601613dcc565b80840191505092915050565b6000815461369c81613e29565b6136a68186613d58565b945060018216600081146136c157600181146136d257613705565b60ff19831686528186019350613705565b6136db85613d27565b60005b838110156136fd578154818901526001820191506020810190506136de565b838801955050505b50505092915050565b600061371b602e83613d47565b915061372682613fc5565b604082019050919050565b600061373e602883613d47565b915061374982614014565b604082019050919050565b6000613761601983613d47565b915061376c82614063565b602082019050919050565b6000613784602083613d47565b915061378f8261408c565b602082019050919050565b60006137a7603183613d47565b91506137b2826140b5565b604082019050919050565b60006137ca601c83613d47565b91506137d582614104565b602082019050919050565b60006137ed602883613d47565b91506137f88261412d565b604082019050919050565b6000613810601d83613d47565b915061381b8261417c565b602082019050919050565b6000613833601383613d47565b915061383e826141a5565b602082019050919050565b61385281613db3565b82525050565b61386961386482613db3565b613ed5565b82525050565b600061387b828461365e565b915081905092915050565b6000613892828461368f565b915081905092915050565b60006138a98284613858565b60208201915081905092915050565b60006020820190506138cd6000830184613607565b92915050565b60006020820190506138e86000830184613616565b92915050565b600060208201905081810360008301526139088184613625565b905092915050565b6000608082019050818103600083015261392a8187613625565b905061393960208301866135f8565b818103604083015261394b8185613625565b9050818103606083015261395f8184613625565b905095945050505050565b6000610180820190508181036000830152613985818f613625565b9050613994602083018e6135f8565b81810360408301526139a6818d613625565b905081810360608301526139ba818c613625565b905081810360808301526139ce818b613625565b90506139dd60a083018a613849565b81810360c08301526139ef8189613625565b90506139fe60e0830188613616565b613a0c610100830187613616565b613a1a610120830186613849565b613a28610140830185613849565b818103610160830152613a3b8184613625565b90509d9c50505050505050505050505050565b6000610140820190508181036000830152613a69818d613625565b9050613a78602083018c6135f8565b8181036040830152613a8a818b613625565b90508181036060830152613a9e818a613625565b9050613aad6080830189613849565b81810360a0830152613abf8188613625565b9050613ace60c0830187613849565b81810360e0830152613ae08186613625565b9050613af0610100830185613849565b818103610120830152613b038184613625565b90509b9a5050505050505050505050565b60006040820190508181036000830152613b2e8185613625565b9050613b3d6020830184613849565b9392505050565b60006020820190508181036000830152613b5d8161370e565b9050919050565b60006020820190508181036000830152613b7d81613731565b9050919050565b60006020820190508181036000830152613b9d81613754565b9050919050565b60006020820190508181036000830152613bbd81613777565b9050919050565b60006020820190508181036000830152613bdd8161379a565b9050919050565b60006020820190508181036000830152613bfd816137bd565b9050919050565b60006020820190508181036000830152613c1d816137e0565b9050919050565b60006020820190508181036000830152613c3d81613803565b9050919050565b60006020820190508181036000830152613c5d81613826565b9050919050565b6000602082019050613c796000830184613849565b92915050565b6000613c89613c9a565b9050613c958282613e5b565b919050565b6000604051905090565b600067ffffffffffffffff821115613cbf57613cbe613f6c565b5b602082029050919050565b600067ffffffffffffffff821115613ce557613ce4613f6c565b5b602082029050602081019050919050565b600067ffffffffffffffff821115613d1157613d10613f6c565b5b613d1a82613fb4565b9050602081019050919050565b60008190508160005260206000209050919050565b600081519050919050565b600082825260208201905092915050565b600081905092915050565b6000613d6e82613d93565b9050919050565b6000613d8082613d93565b9050919050565b60008115159050919050565b600073ffffffffffffffffffffffffffffffffffffffff82169050919050565b6000819050919050565b82818337600083830152505050565b60005b83811015613dea578082015181840152602081019050613dcf565b83811115613df9576000848401525b50505050565b6000613e0a82613db3565b91506000821415613e1e57613e1d613edf565b5b600182039050919050565b60006002820490506001821680613e4157607f821691505b60208210811415613e5557613e54613f0e565b5b50919050565b613e6482613fb4565b810181811067ffffffffffffffff82111715613e8357613e82613f6c565b5b80604052505050565b6000613e9782613db3565b91507fffffffffffffffffffffffffffffffffffffffffffffffffffffffffffffffff821415613eca57613ec9613edf565b5b600182019050919050565b6000819050919050565b7f4e487b7100000000000000000000000000000000000000000000000000000000600052601160045260246000fd5b7f4e487b7100000000000000000000000000000000000000000000000000000000600052602260045260246000fd5b7f4e487b7100000000000000000000000000000000000000000000000000000000600052603260045260246000fd5b7f4e487b7100000000000000000000000000000000000000000000000000000000600052604160045260246000fd5b600080fd5b600080fd5b600080fd5b600080fd5b600080fd5b6000601f19601f8301169050919050565b7f5f5f5f53747564656e74206e6f7420726567697374657265642077697468207460008201527f686973206163636f756e745f5f5f000000000000000000000000000000000000602082015250565b7f466163756c7479206e6f7420726567697374657265642077697468207468697360008201527f206163636f756e74000000000000000000000000000000000000000000000000602082015250565b7f5f5f5f496e76616c69642063726564656e7469616c735f5f5f00000000000000600082015250565b7f5f5f5f506c656173652075736520616e6f7468657220616464726573735f5f5f600082015250565b7f596f7520617265206e6f7420656c696769626c6520746f206170706c7920666f60008201527f72207468697320636f6d61706e79203a28000000000000000000000000000000602082015250565b7f4e6f74204f70656e20666f7220526567697374726174696f6e203a2800000000600082015250565b7f436f6d70616e79206e6f7420726567697374657265642077697468207468697360008201527f206163636f756e74000000000000000000000000000000000000000000000000602082015250565b7f5f5f5f53747564656e7420616c72656164792052656769737465726564000000600082015250565b7f496e76616c69642063726564656e7469616c7300000000000000000000000000600082015250565b6141d781613d63565b81146141e257600080fd5b50565b6141ee81613db3565b81146141f957600080fd5b5056fea26469706673582212203075f29c51ee2d9979a39dcef6050361b210a54ec9d957e286f0c0d420db835264736f6c63430008070033",
  "linkReferences": {},
  "deployedLinkReferences": {}
}