{
  "_format": "hh-sol-artifact-1",
  "contractName": "Placement",
  "sourceName": "src/backend/contract/Placement.sol",
  "abi": [
    {
      "inputs": [
        {
          "internalType": "uint256",
          "name": "_companyId",
          "type": "uint256"
        },
        {
          "internalType": "string",
          "name": "_studentRollno",
          "type": "string"
        }
      ],
      "name": "addSelected",
      "outputs": [],
      "stateMutability": "nonpayable",
      "type": "function"
    },
    {
      "inputs": [
        {
          "internalType": "uint256",
          "name": "_companyId",
          "type": "uint256"
        },
        {
          "internalType": "string",
          "name": "_studentRollno",
          "type": "string"
        }
      ],
      "name": "applyForCompany",
      "outputs": [],
      "stateMutability": "nonpayable",
      "type": "function"
    },
    {
      "inputs": [
        {
          "internalType": "uint256",
          "name": "",
          "type": "uint256"
        }
      ],
      "name": "companies",
      "outputs": [
        {
          "internalType": "string",
          "name": "name",
          "type": "string"
        },
        {
          "internalType": "address payable",
          "name": "company",
          "type": "address"
        },
        {
          "internalType": "string",
          "name": "password",
          "type": "string"
        },
        {
          "internalType": "string",
          "name": "description",
          "type": "string"
        },
        {
          "internalType": "uint256",
          "name": "category",
          "type": "uint256"
        },
        {
          "internalType": "string",
          "name": "ctc",
          "type": "string"
        },
        {
          "internalType": "string",
          "name": "location",
          "type": "string"
        },
        {
          "internalType": "string",
          "name": "branches",
          "type": "string"
        },
        {
          "internalType": "uint256",
          "name": "maxBackLogs",
          "type": "uint256"
        },
        {
          "internalType": "string",
          "name": "minPPI",
          "type": "string"
        },
        {
          "internalType": "string",
          "name": "status",
          "type": "string"
        }
      ],
      "stateMutability": "view",
      "type": "function"
    },
    {
      "inputs": [
        {
          "internalType": "address",
          "name": "",
          "type": "address"
        }
      ],
      "name": "companyAddress",
      "outputs": [
        {
          "internalType": "bool",
          "name": "",
          "type": "bool"
        }
      ],
      "stateMutability": "view",
      "type": "function"
    },
    {
      "inputs": [
        {
          "internalType": "uint256",
          "name": "_companyId",
          "type": "uint256"
        }
      ],
      "name": "companyExists",
      "outputs": [
        {
          "internalType": "bool",
          "name": "",
          "type": "bool"
        }
      ],
      "stateMutability": "view",
      "type": "function"
    },
    {
      "inputs": [
        {
          "internalType": "address",
          "name": "",
          "type": "address"
        }
      ],
      "name": "companyLoggedIn",
      "outputs": [
        {
          "internalType": "bool",
          "name": "",
          "type": "bool"
        }
      ],
      "stateMutability": "view",
      "type": "function"
    },
    {
      "inputs": [
        {
          "internalType": "uint256",
          "name": "_companyId",
          "type": "uint256"
        }
      ],
      "name": "endCompanyProcess",
      "outputs": [],
      "stateMutability": "nonpayable",
      "type": "function"
    },
    {
      "inputs": [
        {
          "internalType": "uint256",
          "name": "_companyId",
          "type": "uint256"
        }
      ],
      "name": "endRegistration",
      "outputs": [],
      "stateMutability": "nonpayable",
      "type": "function"
    },
    {
      "inputs": [
        {
          "internalType": "uint256",
          "name": "",
          "type": "uint256"
        }
      ],
      "name": "faculties",
      "outputs": [
        {
          "internalType": "string",
          "name": "name",
          "type": "string"
        },
        {
          "internalType": "address payable",
          "name": "faculty",
          "type": "address"
        },
        {
          "internalType": "string",
          "name": "password",
          "type": "string"
        },
        {
          "internalType": "string",
          "name": "branch",
          "type": "string"
        }
      ],
      "stateMutability": "view",
      "type": "function"
    },
    {
      "inputs": [
        {
          "internalType": "address",
          "name": "",
          "type": "address"
        }
      ],
      "name": "facultyAddress",
      "outputs": [
        {
          "internalType": "bool",
          "name": "",
          "type": "bool"
        }
      ],
      "stateMutability": "view",
      "type": "function"
    },
    {
      "inputs": [
        {
          "internalType": "uint256",
          "name": "_facultyId",
          "type": "uint256"
        }
      ],
      "name": "facultyExists",
      "outputs": [
        {
          "internalType": "bool",
          "name": "",
          "type": "bool"
        }
      ],
      "stateMutability": "view",
      "type": "function"
    },
    {
      "inputs": [
        {
          "internalType": "address",
          "name": "",
          "type": "address"
        }
      ],
      "name": "facultyLoggedIn",
      "outputs": [
        {
          "internalType": "bool",
          "name": "",
          "type": "bool"
        }
      ],
      "stateMutability": "view",
      "type": "function"
    },
    {
      "inputs": [
        {
          "internalType": "uint256",
          "name": "_companyId",
          "type": "uint256"
        }
      ],
      "name": "getCompanyStatus",
      "outputs": [
        {
          "internalType": "string",
          "name": "",
          "type": "string"
        }
      ],
      "stateMutability": "view",
      "type": "function"
    },
    {
      "inputs": [
        {
          "internalType": "string",
          "name": "_studentRollno",
          "type": "string"
        }
      ],
      "name": "getPPI",
      "outputs": [
        {
          "internalType": "string",
          "name": "",
          "type": "string"
        }
      ],
      "stateMutability": "view",
      "type": "function"
    },
    {
      "inputs": [
        {
          "internalType": "uint256",
          "name": "_companyId",
          "type": "uint256"
        }
      ],
      "name": "getRegisteredStudents",
      "outputs": [
        {
          "internalType": "string[]",
          "name": "",
          "type": "string[]"
        }
      ],
      "stateMutability": "view",
      "type": "function"
    },
    {
      "inputs": [
        {
          "internalType": "string",
          "name": "_studentRollno",
          "type": "string"
        }
      ],
      "name": "getSPI",
      "outputs": [
        {
          "internalType": "string",
          "name": "",
          "type": "string"
        }
      ],
      "stateMutability": "view",
      "type": "function"
    },
    {
      "inputs": [
        {
          "internalType": "uint256",
          "name": "_companyId",
          "type": "uint256"
        },
        {
          "internalType": "string",
          "name": "_studentRollno",
          "type": "string"
        }
      ],
      "name": "isEligible",
      "outputs": [
        {
          "internalType": "bool",
          "name": "",
          "type": "bool"
        }
      ],
      "stateMutability": "view",
      "type": "function"
    },
    {
      "inputs": [
        {
          "internalType": "uint256",
          "name": "_companyId",
          "type": "uint256"
        },
        {
          "internalType": "string",
          "name": "_password",
          "type": "string"
        }
      ],
      "name": "isValidCompany",
      "outputs": [
        {
          "internalType": "bool",
          "name": "",
          "type": "bool"
        }
      ],
      "stateMutability": "view",
      "type": "function"
    },
    {
      "inputs": [
        {
          "internalType": "uint256",
          "name": "_facultyId",
          "type": "uint256"
        },
        {
          "internalType": "string",
          "name": "_password",
          "type": "string"
        }
      ],
      "name": "isValidFaculty",
      "outputs": [
        {
          "internalType": "bool",
          "name": "",
          "type": "bool"
        }
      ],
      "stateMutability": "view",
      "type": "function"
    },
    {
      "inputs": [
        {
          "internalType": "string",
          "name": "_rollno",
          "type": "string"
        },
        {
          "internalType": "string",
          "name": "_password",
          "type": "string"
        }
      ],
      "name": "isValidStudent",
      "outputs": [
        {
          "internalType": "bool",
          "name": "",
          "type": "bool"
        }
      ],
      "stateMutability": "view",
      "type": "function"
    },
    {
      "inputs": [
        {
          "internalType": "uint256",
          "name": "_companyId",
          "type": "uint256"
        },
        {
          "internalType": "string",
          "name": "_password",
          "type": "string"
        }
      ],
      "name": "loginCompany",
      "outputs": [
        {
          "internalType": "bool",
          "name": "",
          "type": "bool"
        }
      ],
      "stateMutability": "nonpayable",
      "type": "function"
    },
    {
      "inputs": [
        {
          "internalType": "uint256",
          "name": "_facultyId",
          "type": "uint256"
        },
        {
          "internalType": "string",
          "name": "_password",
          "type": "string"
        }
      ],
      "name": "loginFaculty",
      "outputs": [
        {
          "internalType": "bool",
          "name": "",
          "type": "bool"
        }
      ],
      "stateMutability": "nonpayable",
      "type": "function"
    },
    {
      "inputs": [
        {
          "internalType": "string",
          "name": "_rollno",
          "type": "string"
        },
        {
          "internalType": "string",
          "name": "_password",
          "type": "string"
        }
      ],
      "name": "loginStudent",
      "outputs": [
        {
          "internalType": "bool",
          "name": "",
          "type": "bool"
        }
      ],
      "stateMutability": "nonpayable",
      "type": "function"
    },
    {
      "inputs": [
        {
          "internalType": "string",
          "name": "_name",
          "type": "string"
        },
        {
          "internalType": "string",
          "name": "_description",
          "type": "string"
        },
        {
          "internalType": "string",
          "name": "_password",
          "type": "string"
        },
        {
          "internalType": "uint256",
          "name": "_category",
          "type": "uint256"
        },
        {
          "internalType": "string",
          "name": "_ctc",
          "type": "string"
        },
        {
          "internalType": "string",
          "name": "_location",
          "type": "string"
        },
        {
          "internalType": "uint256",
          "name": "_maxBackLogs",
          "type": "uint256"
        },
        {
          "internalType": "string",
          "name": "_minPPI",
          "type": "string"
        },
        {
          "internalType": "string",
          "name": "_branches",
          "type": "string"
        }
      ],
      "name": "registerCompany",
      "outputs": [],
      "stateMutability": "nonpayable",
      "type": "function"
    },
    {
      "inputs": [
        {
          "internalType": "string",
          "name": "_name",
          "type": "string"
        },
        {
          "internalType": "string",
          "name": "_branch",
          "type": "string"
        },
        {
          "internalType": "string",
          "name": "_password",
          "type": "string"
        }
      ],
      "name": "registerFaculty",
      "outputs": [],
      "stateMutability": "nonpayable",
      "type": "function"
    },
    {
      "inputs": [
        {
          "internalType": "string",
          "name": "_rollno",
          "type": "string"
        },
        {
          "internalType": "string",
          "name": "_name",
          "type": "string"
        },
        {
          "internalType": "string",
          "name": "_password",
          "type": "string"
        },
        {
          "internalType": "string[1]",
          "name": "_ppi",
          "type": "string[1]"
        },
        {
          "internalType": "string[1]",
          "name": "_spi",
          "type": "string[1]"
        },
        {
          "internalType": "string",
          "name": "_percentage12",
          "type": "string"
        },
        {
          "internalType": "uint256",
          "name": "_backLogs",
          "type": "uint256"
        }
      ],
      "name": "registerStudent",
      "outputs": [],
      "stateMutability": "nonpayable",
      "type": "function"
    },
    {
      "inputs": [
        {
          "internalType": "uint256",
          "name": "_companyId",
          "type": "uint256"
        }
      ],
      "name": "startRegistration",
      "outputs": [],
      "stateMutability": "nonpayable",
      "type": "function"
    },
    {
      "inputs": [
        {
          "internalType": "address",
          "name": "",
          "type": "address"
        }
      ],
      "name": "studentAddress",
      "outputs": [
        {
          "internalType": "bool",
          "name": "",
          "type": "bool"
        }
      ],
      "stateMutability": "view",
      "type": "function"
    },
    {
      "inputs": [
        {
          "internalType": "string",
          "name": "_rollno",
          "type": "string"
        }
      ],
      "name": "studentExists",
      "outputs": [
        {
          "internalType": "bool",
          "name": "",
          "type": "bool"
        }
      ],
      "stateMutability": "view",
      "type": "function"
    },
    {
      "inputs": [
        {
          "internalType": "address",
          "name": "",
          "type": "address"
        }
      ],
      "name": "studentLoggedIn",
      "outputs": [
        {
          "internalType": "bool",
          "name": "",
          "type": "bool"
        }
      ],
      "stateMutability": "view",
      "type": "function"
    },
    {
      "inputs": [
        {
          "internalType": "string",
          "name": "",
          "type": "string"
        }
      ],
      "name": "students",
      "outputs": [
        {
          "internalType": "string",
          "name": "rollno",
          "type": "string"
        },
        {
          "internalType": "address payable",
          "name": "student",
          "type": "address"
        },
        {
          "internalType": "string",
          "name": "name",
          "type": "string"
        },
        {
          "internalType": "string",
          "name": "password",
          "type": "string"
        },
        {
          "internalType": "string",
          "name": "percentage12",
          "type": "string"
        },
        {
          "internalType": "uint256",
          "name": "backLogs",
          "type": "uint256"
        },
        {
          "internalType": "string",
          "name": "resume",
          "type": "string"
        },
        {
          "internalType": "bool",
          "name": "isPlaced",
          "type": "bool"
        },
        {
          "internalType": "bool",
          "name": "isInProgress",
          "type": "bool"
        },
        {
          "internalType": "uint256",
          "name": "companyId",
          "type": "uint256"
        },
        {
          "internalType": "uint256",
          "name": "updateLeft",
          "type": "uint256"
        },
        {
          "internalType": "string",
          "name": "LORStatus",
          "type": "string"
        }
      ],
      "stateMutability": "view",
      "type": "function"
    },
    {
      "inputs": [],
      "name": "totalCompanies",
      "outputs": [
        {
          "internalType": "uint256",
          "name": "",
          "type": "uint256"
        }
      ],
      "stateMutability": "view",
      "type": "function"
    },
    {
      "inputs": [],
      "name": "totalFaculties",
      "outputs": [
        {
          "internalType": "uint256",
          "name": "",
          "type": "uint256"
        }
      ],
      "stateMutability": "view",
      "type": "function"
    },
    {
      "inputs": [],
      "name": "totalStudents",
      "outputs": [
        {
          "internalType": "uint256",
          "name": "",
          "type": "uint256"
        }
      ],
      "stateMutability": "view",
      "type": "function"
    }
  ],
  "bytecode": "0x608060405234801561001057600080fd5b506143aa806100206000396000f3fe608060405234801561001057600080fd5b50600436106102065760003560e01c806385741ba71161011a578063c2edfa50116100ad578063e28406e71161007c578063e28406e7146106e5578063f18a699114610715578063f33049af14610731578063f8643b0b1461074d578063f9892ee21461077d57610206565b8063c2edfa5014610617578063c6ddfefb14610647578063c7ef6bfb14610677578063ca26e03a146106b257610206565b806394366020116100e9578063943660201461057d57806397bbcb93146105ad5780639852bf8e146105dd578063a39d01f8146105fb57610206565b806385741ba7146104d1578063890cfd3d146105015780639079dbff1461053157806393f66ab91461056157610206565b80633b4cc7a31161019d57806353f274731161016c57806353f274731461041b5780635c167d57146104395780636dd08047146104555780637d15dddc146104855780638524e444146104b557610206565b80633b4cc7a31461036d5780633dd3b3be1461038b57806340165592146103bb5780634762d2fe146103eb57610206565b80632813d19d116101d95780632813d19d146102b75780632ed1f9b5146102f157806336c756e41461030d57806338e36fb51461033d57610206565b80630635950f1461020b5780631b3ec26e146102275780631e750c171461025757806325cfb44c14610287575b600080fd5b610225600480360381019061022091906132fb565b6107ad565b005b610241600480360381019061023c919061320d565b610958565b60405161024e9190613a7c565b60405180910390f35b610271600480360381019061026c919061320d565b610978565b60405161027e9190613a7c565b60405180910390f35b6102a1600480360381019061029c91906136a7565b610998565b6040516102ae9190613a7c565b60405180910390f35b6102d160048036038101906102cc919061367a565b610acb565b6040516102e89b9a99989796959493929190613bf7565b60405180910390f35b61030b6004803603810190610306919061367a565b610f85565b005b61032760048036038101906103229190613283565b610fe8565b6040516103349190613a7c565b60405180910390f35b6103576004803603810190610352919061367a565b6110b6565b6040516103649190613a7c565b60405180910390f35b610375611173565b6040516103829190613dea565b60405180910390f35b6103a560048036038101906103a091906136a7565b611179565b6040516103b29190613a7c565b60405180910390f35b6103d560048036038101906103d091906136a7565b61123c565b6040516103e29190613a7c565b60405180910390f35b6104056004803603810190610400919061320d565b611365565b6040516104129190613a7c565b60405180910390f35b610423611385565b6040516104309190613dea565b60405180910390f35b610453600480360381019061044e919061367a565b61138b565b005b61046f600480360381019061046a919061320d565b6113ee565b60405161047c9190613a7c565b60405180910390f35b61049f600480360381019061049a919061367a565b61140e565b6040516104ac9190613a5a565b60405180910390f35b6104cf60048036038101906104ca91906133a2565b6114fd565b005b6104eb60048036038101906104e6919061323a565b611861565b6040516104f89190613a97565b60405180910390f35b61051b60048036038101906105169190613283565b611928565b6040516105289190613a7c565b60405180910390f35b61054b600480360381019061054691906136a7565b611a5b565b6040516105589190613a7c565b60405180910390f35b61057b600480360381019061057691906136a7565b611b8e565b005b6105976004803603810190610592919061367a565b611d09565b6040516105a49190613a97565b60405180910390f35b6105c760048036038101906105c2919061320d565b611db1565b6040516105d49190613a7c565b60405180910390f35b6105e5611dd1565b6040516105f29190613dea565b60405180910390f35b610615600480360381019061061091906136a7565b611dd7565b005b610631600480360381019061062c919061320d565b611f13565b60405161063e9190613a7c565b60405180910390f35b610661600480360381019061065c919061323a565b611f33565b60405161066e9190613a7c565b60405180910390f35b610691600480360381019061068c919061323a565b611ffb565b6040516106a99c9b9a99989796959493929190613b13565b60405180910390f35b6106cc60048036038101906106c7919061367a565b6123db565b6040516106dc9493929190613ab9565b60405180910390f35b6106ff60048036038101906106fa919061323a565b6125c3565b60405161070c9190613a97565b60405180910390f35b61072f600480360381019061072a91906134ec565b61268a565b005b61074b6004803603810190610746919061367a565b6129cf565b005b6107676004803603810190610762919061367a565b612a32565b6040516107749190613a7c565b60405180910390f35b610797600480360381019061079291906136a7565b612aef565b6040516107a49190613a7c565b60405180910390f35b6107b633612bb2565b156107f6576040517f08c379a00000000000000000000000000000000000000000000000000000000081526004016107ed90613d6a565b60405180910390fd5b6002600081548092919061080990614030565b919050555060405180608001604052808481526020013373ffffffffffffffffffffffffffffffffffffffff168152602001828152602001838152506004600060025481526020019081526020016000206000820151816000019080519060200190610876929190612f09565b5060208201518160010160006101000a81548173ffffffffffffffffffffffffffffffffffffffff021916908373ffffffffffffffffffffffffffffffffffffffff16021790555060408201518160020190805190602001906108da929190612f09565b5060608201518160030190805190602001906108f7929190612f09565b509050506001600760003373ffffffffffffffffffffffffffffffffffffffff1673ffffffffffffffffffffffffffffffffffffffff16815260200190815260200160002060006101000a81548160ff021916908315150217905550505050565b600a6020528060005260406000206000915054906101000a900460ff1681565b60096020528060005260406000206000915054906101000a900460ff1681565b60006109a3836110b6565b6109e2576040517f08c379a00000000000000000000000000000000000000000000000000000000081526004016109d990613dca565b60405180910390fd5b6109ec8383612aef565b610a2b576040517f08c379a0000000000000000000000000000000000000000000000000000000008152600401610a2290613d4a565b60405180910390fd5b610a696040518060400160405280601181526020017f5375636365737366756c206c6f67696e21000000000000000000000000000000815250612cb9565b6001600a60003373ffffffffffffffffffffffffffffffffffffffff1673ffffffffffffffffffffffffffffffffffffffff16815260200190815260200160002060006101000a81548160ff0219169083151502179055506001905092915050565b6005602052806000526040600020600091509050806000018054610aee90613fcd565b80601f0160208091040260200160405190810160405280929190818152602001828054610b1a90613fcd565b8015610b675780601f10610b3c57610100808354040283529160200191610b67565b820191906000526020600020905b815481529060010190602001808311610b4a57829003601f168201915b5050505050908060010160009054906101000a900473ffffffffffffffffffffffffffffffffffffffff1690806002018054610ba290613fcd565b80601f0160208091040260200160405190810160405280929190818152602001828054610bce90613fcd565b8015610c1b5780601f10610bf057610100808354040283529160200191610c1b565b820191906000526020600020905b815481529060010190602001808311610bfe57829003601f168201915b505050505090806003018054610c3090613fcd565b80601f0160208091040260200160405190810160405280929190818152602001828054610c5c90613fcd565b8015610ca95780601f10610c7e57610100808354040283529160200191610ca9565b820191906000526020600020905b815481529060010190602001808311610c8c57829003601f168201915b505050505090806004015490806005018054610cc490613fcd565b80601f0160208091040260200160405190810160405280929190818152602001828054610cf090613fcd565b8015610d3d5780601f10610d1257610100808354040283529160200191610d3d565b820191906000526020600020905b815481529060010190602001808311610d2057829003601f168201915b505050505090806006018054610d5290613fcd565b80601f0160208091040260200160405190810160405280929190818152602001828054610d7e90613fcd565b8015610dcb5780601f10610da057610100808354040283529160200191610dcb565b820191906000526020600020905b815481529060010190602001808311610dae57829003601f168201915b505050505090806007018054610de090613fcd565b80601f0160208091040260200160405190810160405280929190818152602001828054610e0c90613fcd565b8015610e595780601f10610e2e57610100808354040283529160200191610e59565b820191906000526020600020905b815481529060010190602001808311610e3c57829003601f168201915b50505050509080600a01549080600b018054610e7490613fcd565b80601f0160208091040260200160405190810160405280929190818152602001828054610ea090613fcd565b8015610eed5780601f10610ec257610100808354040283529160200191610eed565b820191906000526020600020905b815481529060010190602001808311610ed057829003601f168201915b50505050509080600c018054610f0290613fcd565b80601f0160208091040260200160405190810160405280929190818152602001828054610f2e90613fcd565b8015610f7b5780601f10610f5057610100808354040283529160200191610f7b565b820191906000526020600020905b815481529060010190602001808311610f5e57829003601f168201915b505050505090508b565b6040518060400160405280601381526020017f6f70656e466f72526567697374726174696f6e0000000000000000000000000081525060056000838152602001908152602001600020600c019080519060200190610fe4929190612f09565b5050565b600061109d600384604051610ffd91906139f6565b9081526020016040518091039020600301805461101990613fcd565b80601f016020809104026020016040519081016040528092919081815260200182805461104590613fcd565b80156110925780601f1061106757610100808354040283529160200191611092565b820191906000526020600020905b81548152906001019060200180831161107557829003601f168201915b505050505083612d52565b156110ab57600190506110b0565b600090505b92915050565b60003373ffffffffffffffffffffffffffffffffffffffff166004600084815260200190815260200160002060010160009054906101000a900473ffffffffffffffffffffffffffffffffffffffff1673ffffffffffffffffffffffffffffffffffffffff16141561112b576001905061116e565b6111696040518060400160405280601681526020017f466163756c7479206e6f74207265676973746572656400000000000000000000815250612cb9565b600090505b919050565b60015481565b600061122360056000858152602001908152602001600020600201805461119f90613fcd565b80601f01602080910402602001604051908101604052809291908181526020018280546111cb90613fcd565b80156112185780601f106111ed57610100808354040283529160200191611218565b820191906000526020600020905b8154815290600101906020018083116111fb57829003601f168201915b505050505083612d52565b156112315760019050611236565b600090505b92915050565b60006001151560038360405161125291906139f6565b908152602001604051809103902060090160009054906101000a900460ff161515141561135a576005600060038460405161128d91906139f6565b9081526020016040518091039020600a01548152602001908152602001600020600401546005600085815260200190815260200160002060040154116112d6576000905061135f565b60006003836040516112e891906139f6565b9081526020016040518091039020600b01541015611309576000905061135f565b60056000848152602001908152602001600020600a015460038360405161133091906139f6565b9081526020016040518091039020600701541115611351576000905061135f565b6001905061135f565b600190505b92915050565b600b6020528060005260406000206000915054906101000a900460ff1681565b60025481565b6040518060400160405280600a81526020017f696e50726f67726573730000000000000000000000000000000000000000000081525060056000838152602001908152602001600020600c0190805190602001906113ea929190612f09565b5050565b60086020528060005260406000206000915054906101000a900460ff1681565b606060056000838152602001908152602001600020600901805480602002602001604051908101604052809291908181526020016000905b828210156114f257838290600052602060002001805461146590613fcd565b80601f016020809104026020016040519081016040528092919081815260200182805461149190613fcd565b80156114de5780601f106114b3576101008083540402835291602001916114de565b820191906000526020600020905b8154815290600101906020018083116114c157829003601f168201915b505050505081526020019060010190611446565b505050509050919050565b60008081548092919061150f90614030565b9190505550604051806101c001604052808881526020013373ffffffffffffffffffffffffffffffffffffffff16815260200187815260200186815260200185815260200184815260200183815260200182815260200160405180602001604052806000815250815260200160001515815260200160001515815260200160008152602001600281526020016040518060400160405280600a81526020017f6e6f744170706c696564000000000000000000000000000000000000000000008152508152506003886040516115e491906139f6565b9081526020016040518091039020600082015181600001908051906020019061160e929190612f09565b5060208201518160010160006101000a81548173ffffffffffffffffffffffffffffffffffffffff021916908373ffffffffffffffffffffffffffffffffffffffff1602179055506040820151816002019080519060200190611672929190612f09565b50606082015181600301908051906020019061168f929190612f09565b506080820151816004019060016116a7929190612f8f565b5060a0820151816005019060016116bf929190612f8f565b5060c08201518160060190805190602001906116dc929190612f09565b5060e08201518160070155610100820151816008019080519060200190611704929190612f09565b506101208201518160090160006101000a81548160ff0219169083151502179055506101408201518160090160016101000a81548160ff02191690831515021790555061016082015181600a015561018082015181600b01556101a082015181600c01908051906020019061177a929190612f09565b509050506001600660003373ffffffffffffffffffffffffffffffffffffffff1673ffffffffffffffffffffffffffffffffffffffff16815260200190815260200160002060006101000a81548160ff0219169083151502179055506118176040518060400160405280600f81526020017f53747564656e7420636f756e743a200000000000000000000000000000000000815250600054612dab565b6118586040518060400160405280600d81526020017f53747564656e74207070693a2000000000000000000000000000000000000000815250600054612dab565b50505050505050565b606060038260405161187391906139f6565b9081526020016040518091039020600501600060018110611897576118966140e1565b5b0180546118a390613fcd565b80601f01602080910402602001604051908101604052809291908181526020018280546118cf90613fcd565b801561191c5780601f106118f15761010080835404028352916020019161191c565b820191906000526020600020905b8154815290600101906020018083116118ff57829003601f168201915b50505050509050919050565b600061193383611f33565b611972576040517f08c379a000000000000000000000000000000000000000000000000000000000815260040161196990613d2a565b60405180910390fd5b61197c8383610fe8565b6119bb576040517f08c379a00000000000000000000000000000000000000000000000000000000081526004016119b290613d4a565b60405180910390fd5b6119f96040518060400160405280601181526020017f5375636365737366756c206c6f67696e21000000000000000000000000000000815250612cb9565b6001600960003373ffffffffffffffffffffffffffffffffffffffff1673ffffffffffffffffffffffffffffffffffffffff16815260200190815260200160002060006101000a81548160ff0219169083151502179055506001905092915050565b6000611a6683612a32565b611aa5576040517f08c379a0000000000000000000000000000000000000000000000000000000008152600401611a9c90613d8a565b60405180910390fd5b611aaf8383611179565b611aee576040517f08c379a0000000000000000000000000000000000000000000000000000000008152600401611ae590613d4a565b60405180910390fd5b611b2c6040518060400160405280601181526020017f5375636365737366756c206c6f67696e21000000000000000000000000000000815250612cb9565b6001600b60003373ffffffffffffffffffffffffffffffffffffffff1673ffffffffffffffffffffffffffffffffffffffff16815260200190815260200160002060006101000a81548160ff0219169083151502179055506001905092915050565b60006040518060400160405280601381526020017f6f70656e466f72526567697374726174696f6e00000000000000000000000000815250905080604051602001611bd991906139f6565b6040516020818303038152906040528051906020012060056000858152602001908152602001600020600c01604051602001611c159190613a0d565b6040516020818303038152906040528051906020012014611c6b576040517f08c379a0000000000000000000000000000000000000000000000000000000008152600401611c6290613d0a565b60405180910390fd5b611c75838361123c565b611cb4576040517f08c379a0000000000000000000000000000000000000000000000000000000008152600401611cab90613daa565b60405180910390fd5b6005600084815260200190815260200160002060090182908060018154018082558091505060019003906000526020600020016000909190919091509080519060200190611d03929190612f09565b50505050565b606060056000838152602001908152602001600020600c018054611d2c90613fcd565b80601f0160208091040260200160405190810160405280929190818152602001828054611d5890613fcd565b8015611da55780601f10611d7a57610100808354040283529160200191611da5565b820191906000526020600020905b815481529060010190602001808311611d8857829003601f168201915b50505050509050919050565b60076020528060005260406000206000915054906101000a900460ff1681565b60005481565b6005600083815260200190815260200160002060080181908060018154018082558091505060019003906000526020600020016000909190919091509080519060200190611e26929190612f09565b50600060405180602001604052806000815250905080604051602001611e4c91906139f6565b60405160208183030381529060405280519060200120600383604051611e7291906139f6565b9081526020016040518091039020600a0154604051602001611e949190613a24565b604051602081830303815290604052805190602001201415611ee857600382604051611ec091906139f6565b9081526020016040518091039020600b016000815480929190611ee290613fa3565b91905055505b82600383604051611ef991906139f6565b9081526020016040518091039020600a0181905550505050565b60066020528060005260406000206000915054906101000a900460ff1681565b60003373ffffffffffffffffffffffffffffffffffffffff16600383604051611f5c91906139f6565b908152602001604051809103902060010160009054906101000a900473ffffffffffffffffffffffffffffffffffffffff1673ffffffffffffffffffffffffffffffffffffffff161415611fb35760019050611ff6565b611ff16040518060400160405280601681526020017f53747564656e74206e6f74207265676973746572656400000000000000000000815250612cb9565b600090505b919050565b60038180516020810182018051848252602083016020850120818352809550505050505060009150905080600001805461203490613fcd565b80601f016020809104026020016040519081016040528092919081815260200182805461206090613fcd565b80156120ad5780601f10612082576101008083540402835291602001916120ad565b820191906000526020600020905b81548152906001019060200180831161209057829003601f168201915b5050505050908060010160009054906101000a900473ffffffffffffffffffffffffffffffffffffffff16908060020180546120e890613fcd565b80601f016020809104026020016040519081016040528092919081815260200182805461211490613fcd565b80156121615780601f1061213657610100808354040283529160200191612161565b820191906000526020600020905b81548152906001019060200180831161214457829003601f168201915b50505050509080600301805461217690613fcd565b80601f01602080910402602001604051908101604052809291908181526020018280546121a290613fcd565b80156121ef5780601f106121c4576101008083540402835291602001916121ef565b820191906000526020600020905b8154815290600101906020018083116121d257829003601f168201915b50505050509080600601805461220490613fcd565b80601f016020809104026020016040519081016040528092919081815260200182805461223090613fcd565b801561227d5780601f106122525761010080835404028352916020019161227d565b820191906000526020600020905b81548152906001019060200180831161226057829003601f168201915b50505050509080600701549080600801805461229890613fcd565b80601f01602080910402602001604051908101604052809291908181526020018280546122c490613fcd565b80156123115780601f106122e657610100808354040283529160200191612311565b820191906000526020600020905b8154815290600101906020018083116122f457829003601f168201915b5050505050908060090160009054906101000a900460ff16908060090160019054906101000a900460ff169080600a01549080600b01549080600c01805461235890613fcd565b80601f016020809104026020016040519081016040528092919081815260200182805461238490613fcd565b80156123d15780601f106123a6576101008083540402835291602001916123d1565b820191906000526020600020905b8154815290600101906020018083116123b457829003601f168201915b505050505090508c565b60046020528060005260406000206000915090508060000180546123fe90613fcd565b80601f016020809104026020016040519081016040528092919081815260200182805461242a90613fcd565b80156124775780601f1061244c57610100808354040283529160200191612477565b820191906000526020600020905b81548152906001019060200180831161245a57829003601f168201915b5050505050908060010160009054906101000a900473ffffffffffffffffffffffffffffffffffffffff16908060020180546124b290613fcd565b80601f01602080910402602001604051908101604052809291908181526020018280546124de90613fcd565b801561252b5780601f106125005761010080835404028352916020019161252b565b820191906000526020600020905b81548152906001019060200180831161250e57829003601f168201915b50505050509080600301805461254090613fcd565b80601f016020809104026020016040519081016040528092919081815260200182805461256c90613fcd565b80156125b95780601f1061258e576101008083540402835291602001916125b9565b820191906000526020600020905b81548152906001019060200180831161259c57829003601f168201915b5050505050905084565b60606003826040516125d591906139f6565b90815260200160405180910390206004016000600181106125f9576125f86140e1565b5b01805461260590613fcd565b80601f016020809104026020016040519081016040528092919081815260200182805461263190613fcd565b801561267e5780601f106126535761010080835404028352916020019161267e565b820191906000526020600020905b81548152906001019060200180831161266157829003601f168201915b50505050509050919050565b61269333612bb2565b156126d3576040517f08c379a00000000000000000000000000000000000000000000000000000000081526004016126ca90613d6a565b60405180910390fd5b600160008154809291906126e690614030565b91905055506060604051806101a001604052808b81526020013373ffffffffffffffffffffffffffffffffffffffff1681526020018981526020018a81526020018881526020018781526020018681526020018381526020018281526020018281526020018581526020018481526020016040518060400160405280600681526020017f636c6f736564000000000000000000000000000000000000000000000000000081525081525060056000600154815260200190815260200160002060008201518160000190805190602001906127c1929190612f09565b5060208201518160010160006101000a81548173ffffffffffffffffffffffffffffffffffffffff021916908373ffffffffffffffffffffffffffffffffffffffff1602179055506040820151816002019080519060200190612825929190612f09565b506060820151816003019080519060200190612842929190612f09565b506080820151816004015560a0820151816005019080519060200190612869929190612f09565b5060c0820151816006019080519060200190612886929190612f09565b5060e08201518160070190805190602001906128a3929190612f09565b506101008201518160080190805190602001906128c1929190612fe2565b506101208201518160090190805190602001906128df929190612fe2565b5061014082015181600a015561016082015181600b019080519060200190612908929190612f09565b5061018082015181600c019080519060200190612926929190612f09565b509050506001600860003373ffffffffffffffffffffffffffffffffffffffff1673ffffffffffffffffffffffffffffffffffffffff16815260200190815260200160002060006101000a81548160ff0219169083151502179055506129c36040518060400160405280600c81526020017f436f6d70616e792049643a200000000000000000000000000000000000000000815250600154612dab565b50505050505050505050565b6040518060400160405280600681526020017f636c6f736564000000000000000000000000000000000000000000000000000081525060056000838152602001908152602001600020600c019080519060200190612a2e929190612f09565b5050565b60003373ffffffffffffffffffffffffffffffffffffffff166005600084815260200190815260200160002060010160009054906101000a900473ffffffffffffffffffffffffffffffffffffffff1673ffffffffffffffffffffffffffffffffffffffff161415612aa75760019050612aea565b612ae56040518060400160405280601681526020017f436f6d70616e79206e6f74207265676973746572656400000000000000000000815250612cb9565b600090505b919050565b6000612b99600460008581526020019081526020016000206002018054612b1590613fcd565b80601f0160208091040260200160405190810160405280929190818152602001828054612b4190613fcd565b8015612b8e5780601f10612b6357610100808354040283529160200191612b8e565b820191906000526020600020905b815481529060010190602001808311612b7157829003601f168201915b505050505083612d52565b15612ba75760019050612bac565b600090505b92915050565b6000612bbd82612e47565b600660008373ffffffffffffffffffffffffffffffffffffffff1673ffffffffffffffffffffffffffffffffffffffff16815260200190815260200160002060009054906101000a900460ff1680612c5e5750600760008373ffffffffffffffffffffffffffffffffffffffff1673ffffffffffffffffffffffffffffffffffffffff16815260200190815260200160002060009054906101000a900460ff165b80612cb25750600860008373ffffffffffffffffffffffffffffffffffffffff1673ffffffffffffffffffffffffffffffffffffffff16815260200190815260200160002060009054906101000a900460ff165b9050919050565b612d4f81604051602401612ccd9190613a97565b6040516020818303038152906040527f41304fac000000000000000000000000000000000000000000000000000000007bffffffffffffffffffffffffffffffffffffffffffffffffffffffff19166020820180517bffffffffffffffffffffffffffffffffffffffffffffffffffffffff8381831617835250505050612ee0565b50565b600081604051602001612d6591906139f6565b6040516020818303038152906040528051906020012083604051602001612d8c91906139f6565b6040516020818303038152906040528051906020012014905092915050565b612e438282604051602401612dc1929190613cda565b6040516020818303038152906040527fb60e72cc000000000000000000000000000000000000000000000000000000007bffffffffffffffffffffffffffffffffffffffffffffffffffffffff19166020820180517bffffffffffffffffffffffffffffffffffffffffffffffffffffffff8381831617835250505050612ee0565b5050565b612edd81604051602401612e5b9190613a3f565b6040516020818303038152906040527f2c2ecbc2000000000000000000000000000000000000000000000000000000007bffffffffffffffffffffffffffffffffffffffffffffffffffffffff19166020820180517bffffffffffffffffffffffffffffffffffffffffffffffffffffffff8381831617835250505050612ee0565b50565b60008151905060006a636f6e736f6c652e6c6f679050602083016000808483855afa5050505050565b828054612f1590613fcd565b90600052602060002090601f016020900481019282612f375760008555612f7e565b82601f10612f5057805160ff1916838001178555612f7e565b82800160010185558215612f7e579182015b82811115612f7d578251825591602001919060010190612f62565b5b509050612f8b9190613042565b5090565b8260018101928215612fd1579160200282015b82811115612fd0578251829080519060200190612fc0929190612f09565b5091602001919060010190612fa2565b5b509050612fde919061305f565b5090565b828054828255906000526020600020908101928215613031579160200282015b82811115613030578251829080519060200190613020929190612f09565b5091602001919060010190613002565b5b50905061303e919061305f565b5090565b5b8082111561305b576000816000905550600101613043565b5090565b5b8082111561307f57600081816130769190613083565b50600101613060565b5090565b50805461308f90613fcd565b6000825580601f106130a157506130c0565b601f0160209004906000526020600020908101906130bf9190613042565b5b50565b60006130d66130d184613e2a565b613e05565b905080828560208602820111156130f0576130ef614144565b5b60005b8581101561313e57813567ffffffffffffffff8111156131165761311561413f565b5b80860161312389826131ca565b855260208501945060208401935050506001810190506130f3565b5050509392505050565b600061315b61315684613e50565b613e05565b90508281526020810184848401111561317757613176614149565b5b613182848285613f61565b509392505050565b60008135905061319981614346565b92915050565b600082601f8301126131b4576131b361413f565b5b60016131c18482856130c3565b91505092915050565b600082601f8301126131df576131de61413f565b5b81356131ef848260208601613148565b91505092915050565b6000813590506132078161435d565b92915050565b60006020828403121561322357613222614153565b5b60006132318482850161318a565b91505092915050565b6000602082840312156132505761324f614153565b5b600082013567ffffffffffffffff81111561326e5761326d61414e565b5b61327a848285016131ca565b91505092915050565b6000806040838503121561329a57613299614153565b5b600083013567ffffffffffffffff8111156132b8576132b761414e565b5b6132c4858286016131ca565b925050602083013567ffffffffffffffff8111156132e5576132e461414e565b5b6132f1858286016131ca565b9150509250929050565b60008060006060848603121561331457613313614153565b5b600084013567ffffffffffffffff8111156133325761333161414e565b5b61333e868287016131ca565b935050602084013567ffffffffffffffff81111561335f5761335e61414e565b5b61336b868287016131ca565b925050604084013567ffffffffffffffff81111561338c5761338b61414e565b5b613398868287016131ca565b9150509250925092565b600080600080600080600060e0888a0312156133c1576133c0614153565b5b600088013567ffffffffffffffff8111156133df576133de61414e565b5b6133eb8a828b016131ca565b975050602088013567ffffffffffffffff81111561340c5761340b61414e565b5b6134188a828b016131ca565b965050604088013567ffffffffffffffff8111156134395761343861414e565b5b6134458a828b016131ca565b955050606088013567ffffffffffffffff8111156134665761346561414e565b5b6134728a828b0161319f565b945050608088013567ffffffffffffffff8111156134935761349261414e565b5b61349f8a828b0161319f565b93505060a088013567ffffffffffffffff8111156134c0576134bf61414e565b5b6134cc8a828b016131ca565b92505060c06134dd8a828b016131f8565b91505092959891949750929550565b60008060008060008060008060006101208a8c03121561350f5761350e614153565b5b60008a013567ffffffffffffffff81111561352d5761352c61414e565b5b6135398c828d016131ca565b99505060208a013567ffffffffffffffff81111561355a5761355961414e565b5b6135668c828d016131ca565b98505060408a013567ffffffffffffffff8111156135875761358661414e565b5b6135938c828d016131ca565b97505060606135a48c828d016131f8565b96505060808a013567ffffffffffffffff8111156135c5576135c461414e565b5b6135d18c828d016131ca565b95505060a08a013567ffffffffffffffff8111156135f2576135f161414e565b5b6135fe8c828d016131ca565b94505060c061360f8c828d016131f8565b93505060e08a013567ffffffffffffffff8111156136305761362f61414e565b5b61363c8c828d016131ca565b9250506101008a013567ffffffffffffffff81111561365e5761365d61414e565b5b61366a8c828d016131ca565b9150509295985092959850929598565b6000602082840312156136905761368f614153565b5b600061369e848285016131f8565b91505092915050565b600080604083850312156136be576136bd614153565b5b60006136cc858286016131f8565b925050602083013567ffffffffffffffff8111156136ed576136ec61414e565b5b6136f9858286016131ca565b9150509250929050565b600061370f83836137b9565b905092915050565b61372081613f19565b82525050565b61372f81613f07565b82525050565b600061374082613ea6565b61374a8185613ec9565b93508360208202850161375c85613e81565b8060005b8581101561379857848403895281516137798582613703565b945061378483613ebc565b925060208a01995050600181019050613760565b50829750879550505050505092915050565b6137b381613f2b565b82525050565b60006137c482613eb1565b6137ce8185613eda565b93506137de818560208601613f70565b6137e781614158565b840191505092915050565b60006137fd82613eb1565b6138078185613eeb565b9350613817818560208601613f70565b61382081614158565b840191505092915050565b600061383682613eb1565b6138408185613efc565b9350613850818560208601613f70565b80840191505092915050565b6000815461386981613fcd565b6138738186613efc565b9450600182166000811461388e576001811461389f576138d2565b60ff198316865281860193506138d2565b6138a885613e91565b60005b838110156138ca578154818901526001820191506020810190506138ab565b838801955050505b50505092915050565b60006138e8602283613eeb565b91506138f382614169565b604082019050919050565b600061390b602e83613eeb565b9150613916826141b8565b604082019050919050565b600061392e601983613eeb565b915061393982614207565b602082019050919050565b6000613951602083613eeb565b915061395c82614230565b602082019050919050565b6000613974602e83613eeb565b915061397f82614259565b604082019050919050565b6000613997603783613eeb565b91506139a2826142a8565b604082019050919050565b60006139ba602e83613eeb565b91506139c5826142f7565b604082019050919050565b6139d981613f57565b82525050565b6139f06139eb82613f57565b614079565b82525050565b6000613a02828461382b565b915081905092915050565b6000613a19828461385c565b915081905092915050565b6000613a3082846139df565b60208201915081905092915050565b6000602082019050613a546000830184613726565b92915050565b60006020820190508181036000830152613a748184613735565b905092915050565b6000602082019050613a9160008301846137aa565b92915050565b60006020820190508181036000830152613ab181846137f2565b905092915050565b60006080820190508181036000830152613ad381876137f2565b9050613ae26020830186613717565b8181036040830152613af481856137f2565b90508181036060830152613b0881846137f2565b905095945050505050565b6000610180820190508181036000830152613b2e818f6137f2565b9050613b3d602083018e613717565b8181036040830152613b4f818d6137f2565b90508181036060830152613b63818c6137f2565b90508181036080830152613b77818b6137f2565b9050613b8660a083018a6139d0565b81810360c0830152613b9881896137f2565b9050613ba760e08301886137aa565b613bb56101008301876137aa565b613bc36101208301866139d0565b613bd16101408301856139d0565b818103610160830152613be481846137f2565b90509d9c50505050505050505050505050565b6000610160820190508181036000830152613c12818e6137f2565b9050613c21602083018d613717565b8181036040830152613c33818c6137f2565b90508181036060830152613c47818b6137f2565b9050613c56608083018a6139d0565b81810360a0830152613c6881896137f2565b905081810360c0830152613c7c81886137f2565b905081810360e0830152613c9081876137f2565b9050613ca06101008301866139d0565b818103610120830152613cb381856137f2565b9050818103610140830152613cc881846137f2565b90509c9b505050505050505050505050565b60006040820190508181036000830152613cf481856137f2565b9050613d0360208301846139d0565b9392505050565b60006020820190508181036000830152613d23816138db565b9050919050565b60006020820190508181036000830152613d43816138fe565b9050919050565b60006020820190508181036000830152613d6381613921565b9050919050565b60006020820190508181036000830152613d8381613944565b9050919050565b60006020820190508181036000830152613da381613967565b9050919050565b60006020820190508181036000830152613dc38161398a565b9050919050565b60006020820190508181036000830152613de3816139ad565b9050919050565b6000602082019050613dff60008301846139d0565b92915050565b6000613e0f613e20565b9050613e1b8282613fff565b919050565b6000604051905090565b600067ffffffffffffffff821115613e4557613e44614110565b5b602082029050919050565b600067ffffffffffffffff821115613e6b57613e6a614110565b5b613e7482614158565b9050602081019050919050565b6000819050602082019050919050565b60008190508160005260206000209050919050565b600081519050919050565b600081519050919050565b6000602082019050919050565b600082825260208201905092915050565b600082825260208201905092915050565b600082825260208201905092915050565b600081905092915050565b6000613f1282613f37565b9050919050565b6000613f2482613f37565b9050919050565b60008115159050919050565b600073ffffffffffffffffffffffffffffffffffffffff82169050919050565b6000819050919050565b82818337600083830152505050565b60005b83811015613f8e578082015181840152602081019050613f73565b83811115613f9d576000848401525b50505050565b6000613fae82613f57565b91506000821415613fc257613fc1614083565b5b600182039050919050565b60006002820490506001821680613fe557607f821691505b60208210811415613ff957613ff86140b2565b5b50919050565b61400882614158565b810181811067ffffffffffffffff8211171561402757614026614110565b5b80604052505050565b600061403b82613f57565b91507fffffffffffffffffffffffffffffffffffffffffffffffffffffffffffffffff82141561406e5761406d614083565b5b600182019050919050565b6000819050919050565b7f4e487b7100000000000000000000000000000000000000000000000000000000600052601160045260246000fd5b7f4e487b7100000000000000000000000000000000000000000000000000000000600052602260045260246000fd5b7f4e487b7100000000000000000000000000000000000000000000000000000000600052603260045260246000fd5b7f4e487b7100000000000000000000000000000000000000000000000000000000600052604160045260246000fd5b600080fd5b600080fd5b600080fd5b600080fd5b600080fd5b6000601f19601f8301169050919050565b7f5f5f5f4e6f74204f70656e20666f7220526567697374726174696f6e203a285f60008201527f5f5f000000000000000000000000000000000000000000000000000000000000602082015250565b7f5f5f5f53747564656e74206e6f7420726567697374657265642077697468207460008201527f686973206163636f756e745f5f5f000000000000000000000000000000000000602082015250565b7f5f5f5f496e76616c69642063726564656e7469616c735f5f5f00000000000000600082015250565b7f5f5f5f506c656173652075736520616e6f7468657220616464726573735f5f5f600082015250565b7f5f5f5f436f6d70616e79206e6f7420726567697374657265642077697468207460008201527f686973206163636f756e745f5f5f000000000000000000000000000000000000602082015250565b7f5f5f5f596f7520617265206e6f7420656c696769626c6520746f206170706c7960008201527f20666f72207468697320636f6d70616e79203a285f5f5f000000000000000000602082015250565b7f5f5f5f466163756c7479206e6f7420726567697374657265642077697468207460008201527f686973206163636f756e745f5f5f000000000000000000000000000000000000602082015250565b61434f81613f07565b811461435a57600080fd5b50565b61436681613f57565b811461437157600080fd5b5056fea26469706673582212207c29801f66937ebf354ca894bad0b388dbffb904d3a870327dba22946947118064736f6c63430008070033",
  "linkReferences": {},
  "deployedLinkReferences": {}
}